:100000000C9473000C94A0000C94A0000C94A0001D
:100010000C94A0000C94A0000C94A0000C94A000E0
:100020000C94A0000C94A0000C94A0000C94A000D0
:100030000C94A0000C94A0000C94A0000C94A000C0
:100040000C94A0000C94A0000C94A0000C94A000B0
:100050000C94A0000C94A0000C94A0000C946008D8
:100060000C94A0000C9489020C94B5030C94A0008D
:100070000C94A0000C94A0000C94A0000C94A00080
:100080000C94A0000C94A0000C94A0000C94A00070
:100090000C94C2020C94F4030C94A0000C94A000E5
:1000A0000C94A0000C94A0000C94A0000C94A00050
:1000B0000C94A0000C94A0000C94A0000C94A00040
:1000C0000C94A0000C94A0000C94A0000C94FB02D3
:1000D0000C9433040C94A0000C9434030C9472041C
:1000E0000C94A000DC0511241FBECFEFD1E2DEBFCF
:1000F000CDBF00E00CBF12E0A0E0B2E0EAE9F4E11D
:1001000000E00BBF02C007900D92A636B107D9F7E9
:100110001BBE15E0A6E6B2E001C01D92AB30B107F0
:10012000E1F710E0C6EED0E004C02297FE010E9485
:10013000470AC43ED107C9F70E9451080C94A20097
:100140000C940000F8940C944B0A0895AF92BF925F
:10015000CF92DF92EF92FF920F931F93FC012081C9
:100160003181442737FD4095542FDB018D919C91BF
:10017000AA2797FDA095BA2F281B390B4A0B5B0BBA
:10018000E280F3800027F7FC0095102FFB018281AD
:100190009381AA2797FDA095BA2FE81AF90A0A0BAE
:1001A0001B0BCA01B9010E94040A5B016C01C80162
:1001B000B701A80197010E94040AD7FE02C097FD6B
:1001C00012C06A0D7B1D8C1D9D1D0E9436090E9468
:1001D000A3090E940A096030F0E07F07F1E08F0771
:1001E000F0E09F0710F06FEF7FEFCB011F910F91B1
:1001F000FF90EF90DF90CF90BF90AF900895EF9277
:10020000FF920F931F93DF93CF93CDB7DEB728975D
:100210000FB6F894DEBF0FBECDBF9A8389837C836F
:100220006B835E834D8338872F8386E894E060E09C
:1002300072E00E943B0869817A8186E894E04AE096
:1002400050E00E94280886E894E06BE172E00E948A
:100250003B086B817C8186E894E04AE050E00E9494
:10026000280886E894E06DE172E00E943B086D8109
:100270007E8186E894E04AE050E00E94280886E803
:1002800094E06BE172E00E943B086F81788586E81C
:1002900094E04AE050E00E94280886E894E065E295
:1002A00072E00E943E0886E894E067E272E00E94F5
:1002B0003B088B819C817C010027F7FC0095102F67
:1002C0008F819885AA2797FDA095BA2FE81AF90A79
:1002D0000A0B1B0B17FF08C010950095F094E094D3
:1002E000E11CF11C011D111D89819A819C0144278B
:1002F00037FD4095542F8D819E81AA2797FDA095AB
:10030000BA2F281B390B4A0B5B0B57FF07C05095C0
:100310004095309521953F4F4F4F5F4FC801B70132
:10032000620F731F841F951F603020E0720721E069
:10033000820720E0920710F06FEF7FEF86E894E0ED
:100340004AE050E00E94CB0786E894E06CE372E05C
:100350000E943B08CE010196BE016B5F7F4F0E9459
:10036000A600BC0186E894E04AE050E00E94CB077A
:1003700086E894E064E572E00E943E0828960FB695
:10038000F894DEBF0FBECDBFCF91DF911F910F91CB
:10039000FF90EF90089586E894E040E855E260E031
:1003A00070E00E94B10480E090E060E070E040E026
:1003B00050E020E030E00E94FF0084E690E064E638
:1003C00070E048EC50E028EC30E00E94FF008CE93F
:1003D0009FEF6CE97FEF48E35FEF28E33FEF0E9478
:1003E000FF0084E690E064E670E048E35FEF28E316
:1003F0003FEF0E94FF008CE99FEF6CE97FEF48EC34
:1004000050E028EC30E00E94FF0081E090E062E0E4
:1004100070E043E050E024E030E00E94FF008FEF06
:100420009FEF6EEF7FEF43E050E024E030E00E946A
:10043000FF0081E090E062E070E04DEF5FEF2CEFB5
:100440003FEF0E94FF0080EB96E360EB76E340E530
:1004500059EC20E539EC0E94FF008CEB9FE76CEB38
:100460007FE744E450E824E430E80E94FF008FEF87
:100470009FE76FEF7FE74FEF5FE72FEF3FE70E94C8
:10048000FF0080E090E860E070E840E050E820E0A5
:1004900030E80E94FF0080E090E860E070E84FEFF5
:1004A0005FE72FEF3FE70E94FF008FEF9FE76FEFBF
:1004B0007FE740E050E820E030E80E94FF008FEF47
:1004C0009FE760E070E84FEF5FE720E030E80E94D0
:1004D000FF008FEF9FE760E070E840E050E82FEF0B
:1004E0003FE70E94FF008FEF9FE760E070E840E089
:1004F00050E82FEF3FE70E94FF0080E090E86FEFA9
:100500007FE740E050E82FEF3FE70E94FF000895AB
:1005100008951F920F920FB60F920BB60F921124EF
:100520002F933F934F938F939F93EF93FF9340911C
:10053000C6002091A6023091A7022F5F3F4F2F7374
:1005400030708091A8029091A9022817390759F0BC
:10055000E091A602F091A702EA59FD4F4083309343
:10056000A7022093A602FF91EF919F918F914F9147
:100570003F912F910F900BBE0F900FBE0F901F90C9
:10058000189508951F920F920FB60F920BB60F9207
:1005900011242F933F934F938F939F93EF93FF9348
:1005A0004091CE0020912E0330912F032F5F3F4FBB
:1005B0002F733070809130039091310328173907E1
:1005C00059F0E0912E03F0912F03E251FD4F40834B
:1005D00030932F0320932E03FF91EF919F918F91E2
:1005E0004F913F912F910F900BBE0F900FBE0F9028
:1005F0001F90189508951F920F920FB60F920BB689
:100600000F9211242F933F934F938F939F93EF93C8
:10061000FF934091D6002091B6033091B7032F5F2E
:100620003F4F2F7330708091B8039091B903281712
:10063000390759F0E091B603F091B703EA58FC4F3F
:1006400040833093B7032093B603FF91EF919F91BE
:100650008F914F913F912F910F900BBE0F900FBE36
:100660000F901F90189508951F920F920FB60F923A
:100670000BB60F9211242F933F934F938F939F9319
:10068000EF93FF934091360120913E0430913F0457
:100690002F5F3F4F2F733070809140049091410441
:1006A0002817390759F0E0913E04F0913F04E250D9
:1006B000FC4F408330933F0420933E04FF91EF9121
:1006C0009F918F914F913F912F910F900BBE0F9063
:1006D0000FBE0F901F901895E0919204F091930433
:1006E000E05CFF4F8191919120813181821B930BBE
:1006F0008F739070892B11F00E948802E091B104F1
:10070000F091B204E05CFF4F8191919120813181A1
:10071000821B930B8F739070892B11F00E94C10282
:10072000E091D004F091D104E05CFF4F8191919170
:1007300020813181821B930B8F739070892B11F074
:100740000E94FA02E091EF04F091F004E05CFF4FA8
:100750008191919120813181821B930B8F739070D5
:10076000892B11F00E94330308951F920F920FB648
:100770000F920BB60F9211242F933F938F939F9359
:10078000EF93FF932091EA023091EB028091EC020B
:100790009091ED022817390731F48091C1008F7DC7
:1007A0008093C10014C0E091EC02F091ED02E65597
:1007B000FD4F20818091EC029091ED0201968F73A4
:1007C00090709093ED028093EC022093C600FF910D
:1007D000EF919F918F913F912F910F900BBE0F90B2
:1007E0000FBE0F901F9018951F920F920FB60F9289
:1007F0000BB60F9211242F933F938F939F93EF93F8
:10080000FF93209172033091730380917403909150
:1008100075032817390731F48091C9008F7D8093C3
:10082000C90014C0E0917403F0917503EE5CFC4FB5
:100830002081809174039091750301968F7390705D
:1008400090937503809374032093CE00FF91EF91F2
:100850009F918F913F912F910F900BBE0F900FBEE4
:100860000F901F9018951F920F920FB60F920BB614
:100870000F9211242F933F938F939F93EF93FF93A6
:100880002091FA033091FB038091FC039091FD03CA
:100890002817390731F48091D1008F7D8093D100E2
:1008A00014C0E091FC03F091FD03E654FC4F20815D
:1008B0008091FC039091FD0301968F73907090934B
:1008C000FD038093FC032093D600FF91EF919F914D
:1008D0008F913F912F910F900BBE0F900FBE0F90F5
:1008E0001F9018951F920F920FB60F920BB60F9292
:1008F00011242F933F938F939F93EF93FF93209116
:100900008204309183048091840490918504281797
:10091000390731F4809131018F7D8093310114C00A
:10092000E0918404F0918504EE5BFB4F208180917F
:1009300084049091850401968F7390709093850440
:100940008093840420933601FF91EF919F918F91C2
:100950003F912F910F900BBE0F900FBE0F901F90E5
:100960001895AF92BF92DF92EF92FF920F931F9371
:10097000CF93DF93EC017A018B01DD24403081EECF
:10098000580780E0680780E0780711F0DD24D394F1
:1009900091E0A92EB12CEC89FD89DD2069F0C5011B
:1009A0000E8C02C0880F991F0A94E2F7808360E0E2
:1009B00079E08DE390E005C0108260E874E88EE194
:1009C00090E0A80197010E94230A21503040404046
:1009D0005040569547953795279580E12030380748
:1009E00020F0DD2011F0DD24D6CFE889F9893083AD
:1009F000EA89FB892083EE89FF89408121E030E08C
:100A0000C9010A8C02C0880F991F0A94E2F7482B8B
:100A10004083EE89FF894081C9010B8C02C0880F99
:100A2000991F0A94E2F7482B4083EE89FF894081A1
:100A3000C9010C8C02C0880F991F0A94E2F7482B59
:100A40004083EE89FF8980810D8C02C0220F331F05
:100A50000A94E2F7209528232083DF91CF911F91FC
:100A60000F91FF90EF90DF90BF90AF900895DC0161
:100A70001C96ED91FC911D97E05CFF4F2191319107
:100A800080819181281B390B2F733070C901089523
:100A9000DC011C96ED91FC911D97E05CFF4F2081DD
:100AA0003181E054F040DF01AE5BBF4F8D919C91EE
:100AB00011972817390719F42FEF3FEF07C08D91D1
:100AC0009C91E80FF91F8081282F30E0C90108951B
:100AD000DC011C96ED91FC911D97E05CFF4F20819D
:100AE0003181E054F040DF01AE5BBF4F8D919C91AE
:100AF00011972817390719F42FEF3FEF10C08D9188
:100B00009C911197E80FF91F20818D919C9111976D
:100B100001968F73907011969C938E9330E0C9016B
:100B20000895FC0186859785DC01A05CBF4FFC0120
:100B3000EE5BFF4F2D913C91119780819181281799
:100B40003907C1F70895CF93DF93EC01EE85FF8558
:100B5000E05CFF4F20813181E054F0402F5F3F4F38
:100B60002F733070DF01AE5BBF4F8D919C91119759
:100B700028173907D1F3E05CFF4F80819181E05461
:100B8000F040E80FF91F6083EE85FF85E05CFF4FC2
:100B900031832083EE89FF89208181E090E00D8CF4
:100BA00002C0880F991F0A94E2F7282B208381E066
:100BB00090E0DF91CF9108951F93109289041092D5
:100BC000880428EE33E040E050E020938A0430931C
:100BD0008B0440938C0450938D0469E572E070930C
:100BE00087046093860486E692E090939304809352
:100BF00092048AEA92E0909395048093940485ECA1
:100C000090E0909397048093960484EC90E0909306
:100C100099048093980480EC90E090939B048093D7
:100C20009A0481EC90E090939D0480939C0486EC60
:100C300090E090939F0480939E0414E01093A0048E
:100C4000B3E0B093A104A7E0A093A204F5E0F09371
:100C5000A304E1E0E093A4041092A8041092A70476
:100C60002093A9043093AA044093AB045093AC049E
:100C70007093A6046093A5048EEE92E09093B20464
:100C80008093B10482E393E09093B4048093B3041F
:100C90008DEC90E09093B6048093B5048CEC90E0DA
:100CA0009093B8048093B70488EC90E09093BA04D2
:100CB0008093B90489EC90E09093BC048093BB04CA
:100CC0008EEC90E09093BE048093BD041093BF041B
:100CD000B093C004A093C104F093C204E093C30492
:100CE0001092C7041092C6042093C8043093C9041C
:100CF0004093CA045093CB047093C5046093C4041A
:100D000086E793E09093D1048093D0048AEB93E03C
:100D10009093D3048093D20485ED90E09093D50412
:100D20008093D40484ED90E09093D7048093D6040C
:100D300080ED90E09093D9048093D80481ED90E009
:100D40009093DB048093DA0486ED90E09093DD04C9
:100D50008093DC041093DE04B093DF04A093E004DE
:100D6000F093E104E093E2041092E6041092E504AB
:100D70002093E7043093E8044093E9045093EA0495
:100D80007093E4046093E3048EEF93E09093F00497
:100D90008093EF0482E494E09093F2048093F10452
:100DA00085E391E09093F4048093F30484E391E06D
:100DB0009093F6048093F50480E391E09093F80417
:100DC0008093F70481E391E09093FA048093F9040F
:100DD00086E391E09093FC048093FB041093FD0460
:100DE000B093FE04A093FF04F0930005E093010587
:100DF0001F910895CF92DF92EF92FF920F931F936E
:100E0000CF93DF937C016B018A01C0E0D0E00FC07B
:100E1000D6016D916D01D701ED91FC910190F081AA
:100E2000E02DC7011995C80FD91F015010400115B9
:100E3000110571F7CE01DF91CF911F910F91FF90B6
:100E4000EF90DF90CF900895EF92FF920F931F9352
:100E50008C01DC01ED91FC910190F081E02D6DE0C1
:100E600019957C01D801ED91FC910190F081E02D64
:100E7000C8016AE019959C012E0D3F1DC9011F9103
:100E80000F91FF90EF900895CF93DF93DB010D90CA
:100E90000020E9F71197A61BB70BEC01E881F98157
:100EA0000280F381E02DAD011995DF91CF91089576
:100EB0004F925F927F928F929F92AF92BF92CF920A
:100EC000DF92EF92FF920F931F93DF93CF93CDB7F3
:100ED000DEB7A1970FB6F894DEBF0FBECDBF2C01D1
:100EE000742ECB01223008F42AE019A231E2C32E7D
:100EF000D12CCC0EDD1E822E9924AA24BB24672D72
:100F0000752FA50194010E94230A79018A01C80165
:100F1000B701A50194010E94040A472D461B0894BD
:100F2000C108D1084A3014F4405D01C0495CF601A3
:100F30004083E114F1040105110521F07E2C5F2DA1
:100F4000C801DDCFC201B6010E944407A1960FB6C9
:100F5000F894DEBF0FBECDBFCF91DF911F910F91EF
:100F6000FF90EF90DF90CF90BF90AF909F908F90C9
:100F70007F905F904F900895DC012115310541F479
:100F8000ED91FC910190F081E02D642F1995089569
:100F90000E9458070895CF92DF92EF92FF920F932D
:100FA0001F936C017B019A0100E010E0B801A701DA
:100FB0000E94BC078C01C6010E942407080F191F5C
:100FC000C8011F910F91FF90EF90DF90CF9008958F
:100FD000CF92DF92EF92FF920F931F93CF93DF9305
:100FE000EC016A017B012115310541F4E881F981A9
:100FF0000190F081E02D642F19951FC02A30310532
:10100000D1F477FF17C0E881F9810190F081E02DDC
:101010006DE219958C0144275527BA014C195D09D9
:101020006E097F09CE012AE00E9458079801280F17
:10103000391F04C02AE00E9458079C01C901DF91B2
:10104000CF911F910F91FF90EF90DF90CF90089577
:10105000EF92FF920F931F937B019A010027F7FCF9
:101060000095102FB801A7010E94E8071F910F916A
:10107000FF90EF9008950E9444070895EF92FF9229
:101080000F931F937C010E9444078C01C7010E94AB
:101090002407080F191FC8011F910F91FF90EF90AF
:1010A0000895CF93DF930E94A8080E94CB01CCE65D
:1010B000D3E00E94A5002097E1F30E946C03F9CFD2
:1010C0001F920F920FB60F9211242F933F938F937D
:1010D0009F93AF93BF938091060590910705A091D0
:1010E0000805B091090530910A050196A11DB11DB1
:1010F000232F2D5F2D3720F02D570196A11DB11DF7
:1011000020930A058093060590930705A093080590
:10111000B09309058091020590910305A091040503
:10112000B09105050196A11DB11D80930205909314
:101130000305A0930405B0930505BF91AF919F915E
:101140008F913F912F910F900FBE0F901F90189588
:10115000789484B5826084BD84B5816084BD85B592
:10116000826085BD85B5816085BDEEE6F0E0808159
:1011700081608083E1E8F0E010828081826080837A
:10118000808181608083E0E8F0E0808181608083FD
:10119000E1EBF0E0808184608083E0EBF0E080812F
:1011A00081608083E1E9F0E08081826080838081DA
:1011B00081608083E0E9F0E0808181608083E1EA02
:1011C000F0E0808182608083808181608083E0EABA
:1011D000F0E0808181608083E1E2F1E080818260E3
:1011E0008083808181608083E0E2F1E080818160A2
:1011F0008083EAE7F0E08081846080838081826080
:101200008083808181608083808180688083109268
:10121000C100089573D088F09F5790F0B92F992797
:10122000B751A0F0D1F0660F771F881F991F1AF0F1
:10123000BA95C9F712C0B13081F07AD0B1E0089503
:1012400077C0672F782F8827B85F39F0B93FCCF384
:10125000869577956795B395D9F73EF490958095E7
:10126000709561957F4F8F4F9F4F0895E89409C007
:1012700097FB3EF490958095709561957F4F8F4FC9
:101280009F4F9923A9F0F92F96E9BB279395F695DF
:10129000879577956795B795F111F8CFFAF4BB0F5D
:1012A00011F460FF1BC06F5F7F4F8F4F9F4F16C0C1
:1012B000882311F096E911C0772321F09EE8872F4B
:1012C000762F05C0662371F096E8862F70E060E007
:1012D0002AF09A95660F771F881FDAF7880F969580
:1012E000879597F908959FEF80EC089557FD9058E2
:1012F000440F551F59F05F3F71F04795880F97FBDA
:10130000991F61F09F3F79F0879508951216130693
:101310001406551FF2CF4695F1DF08C016161706C2
:101320001806991FF1CF86957105610508940895F7
:10133000E894BB2766277727CB0197F9089511F426
:101340000EF4D1CF4AC0DADFD0F39923D9F3CEF32C
:101350009F57550B87FF51D056959795B0E020F4D5
:10136000660F771F881FBB1F1F930F9300249001E8
:10137000A0018001F001A0E80E0F1F1F0A1E511DE1
:10138000601B710B8009B50B48F4600F711F801D45
:10139000B51F0E1B1F0B0A0A510907C02E0F3F1F56
:1013A0004A1F0E0F1F1F0A1E511D660F771F881F31
:1013B000BB1FA695F795E795F8F6061717070806D9
:1013C0005B07211D311D411D0F911F91B901842F14
:1013D0009158880F9695879508959F3F49F09150B1
:1013E00028F4869577956795B7959F5F80389F4FCE
:1013F000880F9695879597F9089591505040660FFC
:10140000771F881FD2F70895629FD001739FF00164
:10141000829FE00DF11D649FE00DF11D929FF00D84
:10142000839FF00D749FF00D659FF00D9927729FBB
:10143000B00DE11DF91F639FB00DE11DF91FBD0146
:10144000CF0111240895A1E21A2EAA1BBB1BFD0196
:101450000DC0AA1FBB1FEE1FFF1FA217B307E40793
:10146000F50720F0A21BB30BE40BF50B661F771FEB
:10147000881F991F1A9469F76095709580959095CB
:101480009B01AC01BD01CF010895EE0FFF1F059038
:0A149000F491E02D1994F894FFCFB9
:10149A0054657374696E672064697374616E6365F9
:1014AA00206265747765656E2028002C002920610A
:1014BA006E6420280029004D616E68617474616E43
:1014CA002064697374616E63653A200053747261B3
:1014DA00696768742D6C696E652064697374616EDE
:1014EA0063653A000000000000A305FA06370568A4
:0614FA0005480591050004
:00000001FF
