:100000000C94FE030C942B040C942B040C942B04E2
:100010000C942B040C942B040C942B040C942B04A4
:100020000C942B040C942B040C942B040C942B0494
:100030000C942B040C942B040C942B040C942B0484
:100040000C942B040C942B040C942B040C942B0474
:100050000C942B040C942B040C942B040C94FF078D
:100060000C942B040C94F7090C94230B0C942B0484
:100070000C942B040C942B040C942B040C942B0444
:100080000C942B040C942B040C942B040C942B0434
:100090000C94300A0C94620B0C942B040C942B04DB
:1000A0000C942B040C942B040C942B040C942B0414
:1000B0000C942B040C942B040C942B040C942B0404
:1000C0000C942B040C942B040C942B040C94690AB0
:1000D0000C94A10B0C942B040C94A20A0C94E00B2E
:1000E0000C942B0400002100240027002A002D007E
:1000F0003000330001010000040107010A01000083
:100100002200250028002B002E00310034000201BF
:100110000000050108010B0100002000230026005B
:1001200029002C002F00320000010000030106010D
:10013000090105050505070508080808020202026D
:100140000A0A080804040404010101010101010173
:100150000303030303030303040707070C0C0C0C3E
:100160000C0C0C0C02020202060606060606060627
:100170000B0B0B0B0B0B0B0B0102102020080810B4
:100180002040102040800201020108040201010207
:1001900004081020408080402010080402018004E0
:1001A000020180402010080402010804020101023B
:1001B0000408102040800102040810204080000044
:1001C000090A02080B0C0D070603040100000000D9
:1001D000000000000000000000000000000000001F
:1001E0000000000000000000000011100F000000DF
:1001F00000000000000000000000000000000000FF
:10020000000000000F0180961180FFB103012C2D2A
:10021000B203012C2DB306012C2D012C2DB40107A6
:10022000C003A20284C101C5C2020A00C3028A2A15
:10023000C4028AEEC5010E20003601C83A0105024B
:100240002A04000200812B04000100A0022A0400FD
:1002500000007F2B040000009F04E010021C071226
:100260003732292D29252B3900010310E110031DF8
:1002700007062E2C292D2E2E373F0000021013804A
:100280000A298064120180321180FF3A81050AB187
:10029000830006030A360108B6021502B40100C045
:1002A0008202700AC10105C2020102C5823C380AFD
:1002B000FC021115E01009160920211B131917154E
:1002C0001E2B0405020EE1900B14081E221D181EA1
:1002D0001B1A242B0606020F0A2A04000200812B97
:1002E000040002008113800A2980FF7C3C3E5E2BC3
:1002F0003D3F2F5B5D3B2C2A225C0000000000008C
:100300003E5B4F5B3E3E6B4F6B3E1C3E7C3E1C1883
:100310003C7E3C181C577D571C1C5E7F5E1C0018E1
:100320003C1800FFE7C3E7FF0018241800FFE7DBD5
:10033000E7FF30483A060E2629792926407F050531
:1003400007407F05253F5A3CE73C5A7F3E1C1C086E
:10035000081C1C3E7F14227F22145F5F005F5F0633
:10036000097F017F006689956A606060606094A281
:10037000FFA29408047E040810207E201008082A9A
:100380001C08081C2A08081E101010100C1E0C1E39
:100390000C30383E3830060E3E0E060000000000DD
:1003A00000005F00000007000700147F147F142482
:1003B0002A7F2A1223130864623649562050000807
:1003C000070300001C2241000041221C002A1C7F60
:1003D0001C2A08083E080800807030000808080839
:1003E00008000060600020100804023E5149453EAC
:1003F00000427F400072494949462141494D331826
:1004000014127F1027454545393C4A49493141215D
:100410001109073649494936464949291E00001441
:100420000000004034000000081422411414141489
:1004300014004122140802015909063E415D594E3B
:100440007C1211127C7F494949363E414141227F4D
:100450004141413E7F494949417F090909013E41E6
:100460004151737F0808087F00417F4100204041CF
:100470003F017F081422417F404040407F021C0220
:100480007F7F0408107F3E4141413E7F09090906F4
:100490003E4151215E7F09192946264949493203C7
:1004A000017F01033F4040403F1F2040201F3F404D
:1004B00038403F6314081463030478040361594906
:1004C0004D43007F41414102040810200041414159
:1004D0007F0402010204404040404000030708003E
:1004E00020545478407F28444438384444442838C1
:1004F0004444287F385454541800087E090218A434
:10050000A49C787F0804047800447D40002040408B
:100510003D007F1028440000417F40007C047804A7
:10052000787C080404783844444438FC182424189F
:1005300018242418FC7C0804040848545454240447
:10054000043F44243C4040207C1C2040201C3C4074
:1005500030403C44281028444C9090907C44645493
:100560004C44000836410000007700000041360886
:100570000002010204023C2623263C1EA1A16112B6
:100580003A4040207A3854545559215555794121E3
:1005900054547841215554784020545579400C1ECC
:1005A0005272123955555559395454545939555474
:1005B00054580000457C410002457D420001457CC5
:1005C00040F0292429F0F0282528F07C54554500D6
:1005D0002054547C547C0A097F49324949493232BB
:1005E00048484832324A4848303A4141217A3A42F2
:1005F000402078009DA0A07D39444444393D4040CE
:10060000403D3C24FF2424487E4943662B2FFC2F89
:100610002BFF0929F620C0887E0903205454794114
:100620000000447D413048484A32384040227A0038
:100630007A0A0A727D0D19317D2629292F2826294B
:1006400029292630484D402038080808080808089D
:1006500008382F10C8ACBA2F102834FA00007B00DD
:100660000008142A142222142A1408AA005500AAE9
:10067000AA55AA55AA000000FF00101010FF001490
:100680001414FF001010FF00FF1010F010F01414ED
:1006900014FC001414F700FF0000FF00FF1414F412
:1006A00004FC141417101F10101F101F1414141F13
:1006B00000101010F0000000001F101010101F108C
:1006C000101010F010000000FF101010101010108B
:1006D0001010FF10000000FF140000FF00FF0000DA
:1006E0001F10170000FC04F414141710171414F44E
:1006F00004F40000FF00F714141414141414F70089
:10070000F7141414171410101F101F141414F414D9
:100710001010F010F000001F101F0000001F140048
:100720000000FC140000F010F01010FF10FF141473
:1007300014FF141010101F00000000F010FFFFFF46
:10074000FFFFF0F0F0F0F0FFFFFF0000000000FFFF
:10075000FF0F0F0F0F0F38444438447C2A2A3E14F1
:100760007E02020606027E027E026355494163381C
:1007700044443C04407E201E2006027E020299A5CD
:10078000E7A5991C2A492A1C4C7201724C304A4D2B
:100790004D303048784830BC625A463D3E49494960
:1007A000007E0101017E2A2A2A2A2A44445F444409
:1007B00040514A444040444A51400000FF0103E098
:1007C00080FF000008086B6B083612362436060FCF
:1007D000090F06000018180000001010003040FF3C
:1007E0000101001F01011E00191D1712003C3C3CB5
:1007F0003C00000000007E064A0D0F1511241FBEAC
:10080000CFEFD1E2DEBFCDBF00E00CBF12E0A0E031
:10081000B2E0E0EEF4E500E00BBF02C007900D92FD
:10082000AC3FB107D9F71BBE1AE0ACEFB2E001C094
:100830001D92A133B107E1F717E0CCEFD7E004C078
:100840002297FE010E946A2AC63FD107C9F70E947B
:10085000C60F0C942F050C940000CF93DF93BC01BE
:100860008230910510F462E070E0A0912F0AB091FF
:10087000300AED01E0E0F0E040E050E021C0888186
:1008800099818617970769F48A819B81309719F0BF
:100890009383828304C09093300A80932F0AFE01D1
:1008A00034C06817790738F44115510519F08417D9
:1008B000950708F4AC01FE018A819B819C01E90146
:1008C0002097E9F641155105A9F1CA01861B970B3E
:1008D000049708F4BA01E0E0F0E02AC08D919C9101
:1008E000119784179507F9F46417750781F4129628
:1008F0008D919C911397309719F09383828304C054
:100900009093300A80932F0AFD0132964CC0CA01A1
:10091000861B970BFD01E80FF91F619371930297F6
:100920008D939C9340C0FD01828193819C01D901EC
:100930001097A1F680912D0A90912E0A892B41F4EF
:100940008091AC029091AD0290932E0A80932D0A73
:100950004091AE025091AF024115510541F44DB79F
:100960005EB78091AA029091AB02481B590B20916F
:100970002D0A30912E0ACA01821B930B8617970706
:1009800080F0AB014E5F5F4F8417950750F0420F28
:10099000531F50932E0A40932D0AF90161937193CE
:1009A00002C0E0E0F0E0CF01DF91CF910895CF9356
:1009B000DF93009709F450C0EC0122971B821A8242
:1009C000A0912F0AB091300A109709F140E050E051
:1009D000AC17BD0708F1BB83AA83FE0121913191B9
:1009E000E20FF31FAE17BF0779F48D919C91119719
:1009F000280F391F2E5F3F4F3983288312968D9120
:100A00009C9113979B838A834115510571F4D09370
:100A1000300AC0932F0A20C012968D919C91139793
:100A2000AD01009711F0DC01D3CFFA01D383C2836B
:100A300021913191E20FF31FCE17DF0769F488810E
:100A40009981280F391F2E5F3F4FFA013183208390
:100A50008A819B8193838283DF91CF910895F8945B
:100A60000C946E2AFB01DC0104C08D910190801969
:100A700021F441505040C8F7881B990B0895FC01A0
:100A80008191861721F08823D9F799270895319706
:100A9000CF010895FB01DC014150504048F0019026
:100AA0000D920020C9F701C01D9241505040E0F75F
:100AB00008952F923F924F925F926F927F928F9202
:100AC0009F92AF92BF92CF92DF92EF92FF920F93DD
:100AD0001F93DF93CF93CDB7DEB7C054D0400FB68E
:100AE000F894DEBF0FBECDBF2C0178AF6FAB5AAF0D
:100AF00049AF3CAF2BAF902E8E2C360115018DB730
:100B00009EB79EAF8DAFCE0101960E94D413F20125
:100B100040815181CE014C9669ED77E021E00E9441
:100B200055168E8D9F8D9C838B8388A199A1AAA138
:100B3000BBA18D839E83AF83B8878CA19DA1AEA1FD
:100B4000BFA189879A87AB87BC87DE011D96FE010E
:100B5000B8968DE001900D928150E1F78DA99EA984
:100B60009B8F8A8F7E010894E11CF11CC7010E94B3
:100B70002414182FCE014C960E94E7131123B1F4D0
:100B80008DE597E060E072E00E94B00FF2016081B5
:100B900071818DE597E00E94B00F8DE597E067E2E7
:100BA0000E94B20EC7010E94311482C0262D21502E
:100BB000022D01508FA998AD692D482D0E94751006
:100BC0005301AA0CBB1CCC24DD24C7019E2C892E0A
:100BD00064C0FDB6EEB6FFAE2196EFAE2197EDB73D
:100BE000FEB7EA19FB090FB6F894FEBF0FBEEDBFC2
:100BF0000DB71EB70F5F1F4F2BAD3CAD2C0D3D1D2C
:100C0000F20182819381289FA001299F500D389F76
:100C1000500D112489AD9AAD480F591F440F551F2F
:100C200060E070E0892D982D0E944314892D982D45
:100C3000B801A5010E9455148A159B0519F4EE24EC
:100C4000FF241BC08DE597E061E172E00E94B30FC5
:100C50008F2D9E2D9C010FB6F8943EBF0FBE2DBF69
:100C600027C0F801708161818FA998AD0E94F510AD
:100C70000894E11CF11C0E5F1F4FE614F70488F383
:100C80008FAD21969FAD21979C010FB6F8943EBF82
:100C90000FBE2DBF0894C11CD11CC214D30408F48C
:100CA00098CF892D982D0E943114892D982D02C03E
:100CB000CE0101960E94E7138DAD9EAD0FB6F8945C
:100CC0009EBF0FBE8DBFC05CDF4F0FB6F894DEBF76
:100CD0000FBECDBFCF91DF911F910F91FF90EF908D
:100CE000DF90CF90BF90AF909F908F907F906F904C
:100CF0005F904F903F902F90089508958CEF92E071
:100D000066E047E028E00E94D50F10922C05109273
:100D10002D0510923005109232050895CF92DF9282
:100D2000EF92FF920F931F93DF93CF93CDB7DEB770
:100D3000C050D2400FB6F894DEBF0FBECDBF8C01BD
:100D4000D62EC72E68E070E00E94332AAB016627DA
:100D500057FD6095762F4050574F624C7F4F87E28A
:100D600095E07E010894E11CF11C97010E94111A84
:100D7000C80168E070E00E94332AFC0186E0EE0FB3
:100D8000FF1F8A95E1F72D2D3C2DC901DC01EE0DE9
:100D9000FF1D80E401900D928150E1F7C050DE4FBD
:100DA0000FB6F894DEBF0FBECDBFCF91DF911F917C
:100DB0000F91FF90EF90DF90CF900895CF92DF9248
:100DC000EF92FF920F931F93DF93CF93CDB7DEB7D0
:100DD000C054D0400FB6F894DEBF0FBECDBF6B013C
:100DE0007C01CB01BE016F5F7F4F0E948E060DE537
:100DF00017E0C80165E272E00E94B00FC801B701B8
:100E0000A6012AE030E00E94420FC80162E372E0CE
:100E10000E94B00FC801BE01665F7F4F0E94B30FF2
:100E2000C05CDF4F0FB6F894DEBF0FBECDBFCF91D1
:100E3000DF911F910F91FF90EF90DF90CF90089579
:100E4000AF92BF92CF92DF92EF92FF920F931F93D8
:100E50008DE597E040E855E260E070E00E941F0CED
:100E60008CEF92E061E00E94B1138DE597E06AE3B8
:100E700072E00E94B00F6DB77EB780912D0A9091FD
:100E80002E0A009721F48091AC029091AD02681B6C
:100E9000790B8DE597E04AE050E00E94910F8DE5D7
:100EA00097E06DE472E00E94B00F89ED97E065E095
:100EB0000E948717882339F48DE597E065E672E094
:100EC0000E94B30F93C08DE597E06DE672E00E943B
:100ED000B30F8CEF92E06FEF4FEF20E00E947F1294
:100EE000BC018CEF92E00E94B91080EB92E06CEFB5
:100EF00072E040E050E020E030E000E010E0EE245E
:100F0000FF24F0E8CF2ED12CE0E8AE2EB12C0E94C9
:100F100059058DE597E06AE372E00E94B00F6DB766
:100F20007EB780912D0A90912E0A009721F480912E
:100F3000AC029091AD02681B790B8DE597E04AE019
:100F400050E00E94910F87E295E061E045E00E9449
:100F5000211A882339F48DE597E061E772E00E9459
:100F6000B30FFFCF8DE597E06AE372E00E94B00F08
:100F70006DB77EB780912D0A90912E0A009721F4CB
:100F80008091AC029091AD02681B790B8DE597E0E2
:100F90004AE050E00E94910F0E94470800E010E0F4
:100FA00087E295E040E059E06DE370E027E233E04E
:100FB0000E94111A0F5F1F4F0738110589F70E9411
:100FC0004708EE24FF248701C801B7010E94DE060E
:100FD0000894E11CF11C011D111D8AE2E81684E051
:100FE000F80680E0080780E0180771F71F910F915D
:100FF000FF90EF90DF90CF90BF90AF9008951F9239
:101000000F920FB60F9211242F933F938F939F93BC
:10101000AF93BF938091380590913905A0913A051F
:10102000B0913B0530913C050196A11DB11D232FC8
:101030002D5F2D3720F02D570196A11DB11D209356
:101040003C058093380590933905A0933A05B093F9
:101050003B058091340590913505A0913605B091FE
:1010600037050196A11DB11D809334059093350578
:10107000A0933605B0933705BF91AF919F918F91A3
:101080003F912F910F900FBE0F901F9018958FB723
:10109000F894209138053091390540913A055091E6
:1010A0003B058FBFB901CA0108959B01AC017FB711
:1010B000F8948091340590913505A0913605B09152
:1010C000370566B5A89B05C06F3F19F00196A11DB5
:1010D000B11D7FBFBA2FA92F982F8827860F911D8A
:1010E000A11DB11D62E0880F991FAA1FBB1F6A9541
:1010F000D1F7BC012DC0FFB7F894809134059091D1
:101100003505A0913605B0913705E6B5A89B05C019
:10111000EF3F19F00196A11DB11DFFBFBA2FA92FF6
:10112000982F88278E0F911DA11DB11DE2E0880F19
:10113000991FAA1FBB1FEA95D1F7861B970B885EE4
:101140009340C8F2215030404040504068517C4F9D
:10115000211531054105510571F60895789484B53E
:10116000826084BD84B5816084BD85B5826085BDA3
:1011700085B5816085BDEEE6F0E080818160808389
:10118000E1E8F0E01082808182608083808181606C
:101190008083E0E8F0E0808181608083E1EBF0E033
:1011A000808184608083E0EBF0E0808181608083D7
:1011B000E1E9F0E0808182608083808181608083CA
:1011C000E0E9F0E0808181608083E1EAF0E0808105
:1011D00082608083808181608083E0EAF0E08081AA
:1011E00081608083E1E2F1E08081826080838081A0
:1011F00081608083E0E2F1E0808181608083EAE7C2
:10120000F0E080818460808380818260808380813F
:10121000816080838081806880831092C1000895FE
:10122000CF93DF93482F50E0CA0188589E4FFC01AE
:1012300034914E5C5E4FFA018491882369F190E00D
:10124000880F991FFC01EC51FF4FA591B491FC014F
:10125000E250FF4FC591D491662351F42FB7F89413
:101260008C91932F909589238C93888189230BC02F
:10127000623061F42FB7F8948C91932F9095892365
:101280008C938881832B88832FBF06C09FB7F894E7
:101290008C91832B8C939FBFDF91CF9108958930E0
:1012A00009F449C08A30A0F4843051F1853040F40B
:1012B000823079F1833000F5813009F063C026C0B7
:1012C000873079F1883098F5863009F05BC025C009
:1012D0008D3009F442C08E3028F48B30B1F18C305F
:1012E000C0F52DC0803109F442C0813109F445C0F8
:1012F0008F3009F047C037C0809180008F7703C0DE
:10130000809180008F7D80938000089584B58F77D1
:1013100002C084B58F7D84BD08958091B0008F7721
:1013200003C08091B0008F7D8093B00008958091BC
:1013300090008F7707C0809190008F7D03C08091CF
:101340009000877F8093900008958091A0008F7710
:1013500007C08091A0008F7D03C08091A000877F8F
:101360008093A0000895809120018F7703C0809121
:1013700020018F7D80932001089580912001877F37
:10138000809320010895FF920F931F93F62E482F0C
:1013900050E0CA0182549E4FFC012491CA01885832
:1013A0009E4FFC0114914E5C5E4FFA0104910023A4
:1013B000C9F0222319F0822F0E944F09E02FF0E09C
:1013C000EE0FFF1FE250FF4FA591B4919FB7F89425
:1013D000FF2021F48C911095812302C08C91812BE8
:1013E0008C939FBF1F910F91FF90089508951F92B6
:1013F0000F920FB60F920BB60F9211242F933F93BB
:101400004F938F939F93EF93FF934091C60020914A
:101410007D0530917E052F5F3F4F2F733070809197
:101420007F05909180052817390759F0E0917D05D7
:10143000F0917E05E35CFA4F408330937E05209364
:101440007D05FF91EF919F918F914F913F912F914A
:101450000F900BBE0F900FBE0F901F901895089520
:101460001F920F920FB60F920BB60F9211242F936B
:101470003F934F938F939F93EF93FF934091CE00B1
:1014800020910506309106062F5F3F4F2F73307075
:1014900080910706909108062817390759F0E091C6
:1014A0000506F0910606EB53FA4F4083309306068B
:1014B00020930506FF91EF919F918F914F913F915E
:1014C0002F910F900BBE0F900FBE0F901F9018958D
:1014D00008951F920F920FB60F920BB60F92112420
:1014E0002F933F934F938F939F93EF93FF9340914D
:1014F000D60020918D0630918E062F5F3F4F2F73BF
:10150000307080918F06909190062817390759F016
:10151000E0918D06F0918E06E35BF94F40833093A6
:101520008E0620938D06FF91EF919F918F914F91A1
:101530003F912F910F900BBE0F900FBE0F901F90F9
:10154000189508951F920F920FB60F920BB60F9237
:1015500011242F933F934F938F939F93EF93FF9378
:101560004091360120911507309116072F5F3F4FAC
:101570002F7330708091170790911807281739073B
:1015800059F0E0911507F0911607EB52F94F40839F
:101590003093160720931507FF91EF919F918F913C
:1015A0004F913F912F910F900BBE0F900FBE0F9058
:1015B0001F901895E0916907F0916A07E05CFF4F72
:1015C0008191919120813181821B930B8F73907057
:1015D000892B11F00E94F609E0918807F0918907A4
:1015E000E05CFF4F8191919120813181821B930BAF
:1015F0008F739070892B11F00E942F0AE091A7073A
:10160000F091A807E05CFF4F819191912081318199
:10161000821B930B8F739070892B11F00E94680AC4
:10162000E091C607F091C707E05CFF4F819191916F
:1016300020813181821B930B8F739070892B11F065
:101640000E94A10A08951F920F920FB60F920BB637
:101650000F9211242F933F938F939F93EF93FF93B8
:101660002091C1053091C2058091C3059091C405B8
:101670002817390731F48091C1008F7D8093C10014
:1016800014C0E091C305F091C405EF57FA4F2081D3
:101690008091C3059091C40501968F7390709093CB
:1016A000C4058093C3052093C600FF91EF919F91DD
:1016B0008F913F912F910F900BBE0F900FBE0F9007
:1016C0001F9018951F920F920FB60F920BB60F92A4
:1016D00011242F933F938F939F93EF93FF93209128
:1016E000490630914A0680914B0690914C06281786
:1016F000390731F48091C9008F7D8093C90014C0EF
:10170000E0914B06F0914C06E75FF94F2081809104
:101710004B0690914C0601968F73907090934C06F7
:1017200080934B062093CE00FF91EF919F918F9174
:101730003F912F910F900BBE0F900FBE0F901F90F7
:1017400018951F920F920FB60F920BB60F9211249D
:101750002F933F938F939F93EF93FF932091D10605
:101760003091D2068091D3069091D406281739077C
:1017700031F48091D1008F7D8093D10014C0E0912D
:10178000D306F091D406EF56F94F20818091D3060D
:101790009091D40601968F7390709093D4068093A5
:1017A000D3062093D600FF91EF919F918F913F91A7
:1017B0002F910F900BBE0F900FBE0F901F9018959A
:1017C0001F920F920FB60F920BB60F9211242F9308
:1017D0003F938F939F93EF93FF93209159073091FD
:1017E0005A0780915B0790915C072817390731F4FD
:1017F000809131018F7D8093310114C0E0915B07AE
:10180000F0915C07E75EF84F208180915B07909133
:101810005C0701968F73907090935C0780935B07D1
:1018200020933601FF91EF919F918F913F912F91DE
:101830000F900BBE0F900FBE0F901F901895AF9298
:10184000BF92DF92EF92FF920F931F93CF93DF939C
:10185000EC017A018B01DD24403081EE580780E0F5
:10186000680780E0780711F0DD24D39491E0A92E79
:10187000B12CEC89FD89DD2069F0C5010E8C02C018
:10188000880F991F0A94E2F7808360E079E08DE386
:1018900090E005C0108260E874E88EE190E0A80155
:1018A00097010E94462A21503040404050405695B2
:1018B00047953795279580E12030380720F0DD20C7
:1018C00011F0DD24D6CFE889F9893083EA89FB89D4
:1018D0002083EE89FF89408121E030E0C9010A8C34
:1018E00002C0880F991F0A94E2F7482B4083EE89C3
:1018F000FF894081C9010B8C02C0880F991F0A948F
:10190000E2F7482B4083EE89FF894081C9010C8CA6
:1019100002C0880F991F0A94E2F7482B4083EE8992
:10192000FF8980810D8C02C0220F331F0A94E2F7D9
:10193000209528232083DF91CF911F910F91FF9055
:10194000EF90DF90BF90AF900895DC011C96ED9171
:10195000FC911D97E05CFF4F219131918081918135
:10196000281B390B2F733070C9010895DC011C96B8
:10197000ED91FC911D97E05CFF4F20813181E05497
:10198000F040DF01AE5BBF4F8D919C9111972817FE
:10199000390719F42FEF3FEF07C08D919C91E80FA5
:1019A000F91F8081282F30E0C9010895DC011C96C1
:1019B000ED91FC911D97E05CFF4F20813181E05457
:1019C000F040DF01AE5BBF4F8D919C9111972817BE
:1019D000390719F42FEF3FEF10C08D919C911197AB
:1019E000E80FF91F20818D919C91119701968F73BB
:1019F000907011969C938E9330E0C9010895FC017C
:101A000086859785DC01A05CBF4FFC01EE5BFF4F34
:101A10002D913C9111978081918128173907C1F749
:101A20000895CF93DF93EC01EE85FF85E05CFF4FD7
:101A300020813181E054F0402F5F3F4F2F73307091
:101A4000DF01AE5BBF4F8D919C911197281739072D
:101A5000D1F3E05CFF4F80819181E054F040E80FCA
:101A6000F91F6083EE85FF85E05CFF4F31832083A3
:101A7000EE89FF89208181E090E00D8C02C0880F03
:101A8000991F0A94E2F7282B208381E090E0DF91F0
:101A9000CF9108951F931092600710925F0728EE70
:101AA00033E040E050E020936107309362074093B9
:101AB0006307509364076EEB72E070935E07609368
:101AC0005D078DE395E090936A078093690781E84D
:101AD00095E090936C0780936B0785EC90E0909372
:101AE0006E0780936D0784EC90E09093700780936D
:101AF0006F0780EC90E0909372078093710781EC00
:101B000090E0909374078093730786EC90E0909335
:101B100076078093750714E010937707B3E0B093CE
:101B20007807A7E0A0937907F5E0F0937A07E1E062
:101B3000E0937B0710927F0710927E072093800727
:101B400030938107409382075093830770937D07FA
:101B500060937C0785EC95E09093890780938807D4
:101B600089E096E090938B0780938A078DEC90E054
:101B700090938D0780938C078CEC90E090938F0767
:101B800080938E0788EC90E0909391078093900764
:101B900089EC90E090939307809392078EEC90E00D
:101BA000909395078093940710939607B0939707A7
:101BB000A0939807F0939907E0939A0710929E07D5
:101BC00010929D0720939F073093A0074093A10791
:101BD0005093A20770939C0760939B078DE496E057
:101BE0009093A8078093A70781E996E09093AA07AE
:101BF0008093A90785ED90E09093AC078093AB07A5
:101C000084ED90E09093AE078093AD0780ED90E077
:101C10009093B0078093AF0781ED90E09093B20767
:101C20008093B10786ED90E09093B4078093B3075B
:101C30001093B507B093B607A093B707F093B80712
:101C4000E093B9071092BD071092BC072093BE071E
:101C50003093BF074093C0075093C1077093BB07F1
:101C60006093BA0785ED96E09093C7078093C60707
:101C700089E197E09093C9078093C80785E391E0D5
:101C80009093CB078093CA0784E391E09093CD07AC
:101C90008093CC0780E391E09093CF078093CE07A9
:101CA00081E391E09093D1078093D00786E391E0A0
:101CB0009093D3078093D2071093D407B093D5079E
:101CC000A093D607F093D707E093D8071F91089504
:101CD000CF92DF92EF92FF920F931F93CF93DF93F8
:101CE0007C016B018A01C0E0D0E00FC0D6016D918C
:101CF0006D01D701ED91FC910190F081E02DC701BC
:101D00001995C80FD91F015010400115110571F721
:101D1000CE01DF91CF911F910F91FF90EF90DF9057
:101D2000CF900895EF92FF920F931F938C01DC01E7
:101D3000ED91FC910190F081E02D6DE019957C0111
:101D4000D801ED91FC910190F081E02DC8016AE08D
:101D500019959C012E0D3F1DC9011F910F91FF90F8
:101D6000EF900895EF92FF920F931F937C01DC0197
:101D7000ED91FC910190F081E02D19958C01C70146
:101D80000E94920E080F191FC8011F910F91FF901A
:101D9000EF900895CF93DF93DB010D900020E9F7DA
:101DA0001197A61BB70BEC01E881F9810280F38142
:101DB000E02DAD011995DF91CF9108954F925F927B
:101DC0007F928F929F92AF92BF92CF92DF92EF92CB
:101DD000FF920F931F93DF93CF93CDB7DEB7A197F9
:101DE0000FB6F894DEBF0FBECDBF2C01742ECB0111
:101DF000223008F42AE019A231E2C32ED12CCC0EF5
:101E0000DD1E822E9924AA24BB24672D752FA501DF
:101E100094010E94462A79018A01C801B701A501EF
:101E200094010E94002A472D461B0894C108D1083E
:101E30004A3014F4405D01C0495CF6014083E1146E
:101E4000F1040105110521F07E2C5F2DC801DDCFC5
:101E5000C201B6010E94CA0EA1960FB6F894DEBF69
:101E60000FBECDBFCF91DF911F910F91FF90EF90EB
:101E7000DF90CF90BF90AF909F908F907F905F90BA
:101E80004F900895DC012115310541F4ED91FC914D
:101E90000190F081E02D642F199508950E94DE0EC7
:101EA0000895CF92DF92EF92FF920F931F93CF93FB
:101EB000DF93EC016A017B012115310541F4E881D2
:101EC000F9810190F081E02D642F19951FC02A300F
:101ED0003105D1F477FF17C0E881F9810190F081D5
:101EE000E02D6DE219958C0144275527BA014C1954
:101EF0005D096E097F09CE012AE00E94DE0E98017D
:101F0000280F391F04C02AE00E94DE0E9C01C9017F
:101F1000DF91CF911F910F91FF90EF90DF90CF90C5
:101F20000895CF92DF92EF92FF920F931F936C016F
:101F30007B019A010027F7FC0095102FB801A7013B
:101F40000E94510F8C01C6010E94920E080F191FAA
:101F5000C8011F910F91FF90EF90DF90CF900895EF
:101F60000E94CA0E0895EF92FF920F931F937C0177
:101F70000E94CA0E8C01C7010E94920E080F191F01
:101F8000C8011F910F91FF90EF900895CF93DF93B9
:101F90000E94AE080E942007CAEDDAE00E947D068A
:101FA0002097E1F30E94DA0AF9CFFC011382128232
:101FB0008EEC92E09183808360A341A322A381E011
:101FC000878B14A213A20895DC0157968C91579722
:101FD000882329F06EBD0DB407FEFDCF089530E8CB
:101FE00040E050E070E0832F90E0862397235896DE
:101FF000ED91FC91599795962C919597892B21F00D
:102000008081822B808304C08081209528232083B7
:102010005A96ED91FC915B97808196969C9196974C
:10202000892B80835A96ED91FC915B9790819696CF
:102030008C91969780958923808336954F5F5F4F6B
:102040004830510581F608950F931F938C01DC01F0
:102050005E96ED91FC915F97908198968C91989700
:102060008095892380835C96ED91FC915D979081AA
:1020700097968C91809589238083C8010E94E40FF4
:10208000D8015C96ED91FC915D97808197969C912B
:10209000892B80831F910F9108950F931F938C01BB
:1020A000DC015E96ED91FC915F97808198969C9102
:1020B0009897892B80835C96ED91FC915D97908138
:1020C00097968C91809589238083C8010E94E40FA4
:1020D000D8015C96ED91FC915D97808197969C91DB
:1020E000892B80831F910F910895CF92DF92EF92F9
:1020F000FF920F931F937C01162FC42ED22E6AE2FB
:102100000E942410C70160E00E944D10F70161A5F4
:10211000610FC7010E944D10C70160E00E944D1081
:10212000F70161A56D0DC7010E944D10C7016BE25B
:102130000E942410C70160E00E944D10F70162A5C3
:102140006C0DC7010E944D10C70160E00E944D1048
:10215000F70162A5600FC7010E944D10C7016CE234
:102160000E9424101F910F91FF90EF90DF90CF906D
:102170000895EF92FF920F931F93CF93DF93EC019B
:102180007B01288521500A85015060E040E00E94D3
:102190007510EE8DFF8D808198A5892B8083EC8D45
:1021A000FD8D90818FA18095892380831A850EC033
:1021B000088509C0CE016F2D0E94E40FCE016E2D5F
:1021C0000E94E40F01500023A9F71150112381F759
:1021D000EC8DFD8D80819FA1892B8083DF91CF9134
:1021E0001F910F91FF90EF900895FF920F931F930F
:1021F0008C01F62E672FDC015E96ED91FC915F97C6
:10220000808198969C919897892B80835C96ED911C
:10221000FC915D97908197968C918095892380831E
:10222000C8010E94E40FC8016F2D0E94E40FD8017D
:102230005C96ED91FC915D97808197969C91892B9E
:1022400080831F910F91FF900895FF920F931F932A
:10225000CF93DF93EC01F22E132F77FD2EC08885EC
:102260009985681779074CF557FD27C08A859B85A6
:102270004817590714F5262F2F5F042F0F5FCE0143
:102280000E947510EE8DFF8D808198A5892B80832B
:10229000EC8DFD8D90818FA1809589238083CE0167
:1022A000612F0E94E40FCE016F2D0E94E40FEC8D90
:1022B000FD8D80819FA1892B8083DF91CF911F911C
:1022C0000F91FF900895DF92EF92FF920F931F936B
:1022D000CF93DF93EC01FB017901D02E888599859E
:1022E00068177907D4F52A853B8542175307ACF563
:1022F000C701840F951F281739071CF47901E41AC8
:10230000F50A042F01500E0DCE016E2F2E2F0E94C4
:102310007510EE8DFF8D808198A5892B8083EC8DC3
:10232000FD8D90818FA180958923808308C0CE0187
:10233000612F0E94E40FCE016D2D0E94E40F0894DE
:10234000E108F1088FEFE8168FEFF80681F7EC8DC2
:10235000FD8D80819FA1892B8083DF91CF911F917B
:102360000F91FF90EF90DF900895DF92EF92FF9230
:102370000F931F93CF93DF93EC01FA017901D02ED5
:102380002885398562177307D4F58A859B85481798
:102390005907ACF5C701860F971F281739071CF49A
:1023A0007901E61AF70A262F21502E0DCE014E2F65
:1023B0000E2F0E947510EE8DFF8D808198A5892BC0
:1023C0008083EC8DFD8D90818FA180958923808302
:1023D00008C0CE01612F0E94E40FCE016D2D0E9436
:1023E000E40F0894E108F1088FEFE8168FEFF80684
:1023F00081F7EC8DFD8D80819FA1892B8083DF91FA
:10240000CF911F910F91FF90EF90DF900895AF92C1
:10241000BF92CF92DF92EF92FF920F931F93CF93D1
:10242000DF936C015901E801DC0118962D913C9174
:102430001997621773070CF057C01A96ED91FC912B
:102440001B974E175F070CF04FC0C501860F971FF3
:10245000281739071CF45901A61AB70ACE01840FB0
:10246000951FE817F9071CF4EF01C41BD50B262FA5
:1024700021502A0D042F01500C0FC6010E94751027
:10248000D6015E96ED91FC915F97808198969C9124
:102490009897892B80835C96ED91FC915D97908154
:1024A00097968C918095892380838E010EC0C601FA
:1024B0006F2D0E94E40FC6016E2D0E94E40F21973C
:1024C0001C161D06A4F3015010401016110614F43A
:1024D000E501F6CFD6015C96ED91FC915D97808188
:1024E00097969C91892B8083DF91CF911F910F91BB
:1024F000FF90EF90DF90CF90BF90AF90089550E0A5
:102500004C7F507033E0440F551F3A95E1F730E0AF
:1025100093E0359527959A95E1F7422B532B70E080
:10252000687F7070762F6627462B572BCA01089557
:10253000662311F460E201C061E20E942410089554
:10254000AF92BF92CF92DF92EF92FF920F931F93C1
:10255000CF93DF935C01FB01EB012196D49031C056
:102560008E010F5F1F4FFE016491C5010E94241070
:1025700078010894E11CF11CF801C4900C2D0F7730
:10258000E701102F08C0FE012196E491C5016E2FCE
:102590000E944D1011501123B1F7E701C00FD11D5A
:1025A000C7FE0EC0FE018491682F70E06F3F710579
:1025B00011F464EF71E0219680E090E00E945508EC
:1025C000DA94DD2069F6DF91CF911F910F91FF9092
:1025D000EF90DF90CF90BF90AF9008950F931F932F
:1025E000CF93DF93EC018B0160E870E040EA50E0AC
:1025F0000E94A4271AA619A689A161E00E941009C9
:1026000088A161E00E941009E8A12E2F30E0F901B5
:10261000EE5CFE4FE491F0E0EE0FFF1FE250FF4F43
:10262000859194919D8F8C8F28583E4FF90184910C
:102630008FA3E9A12E2F30E0F901EE5CFE4FE4916B
:10264000F0E0EE0FFF1FE250FF4F859194919F8FB6
:102650008E8F28583E4FF901849188A78F8988234F
:1026600061F00E94852780E00E94742781E00E942B
:10267000662780E00E946F273DC08CA161E00E9428
:1026800010098BA161E00E941009ECA18E2F90E04F
:10269000FC01EE5CFE4FE491F0E0EE0FFF1FE25014
:1026A000FF4FA591B491BB8FAA8F88589E4FFC0114
:1026B00044914EA3EBA12E2F30E0F901EE5CFE4FCA
:1026C000E491F0E0EE0FFF1FE250FF4F85919491EF
:1026D000998F888F28583E4FF90184918DA38C9152
:1026E000409548234C93E88DF98D90818DA180957C
:1026F00089238083EC8DFD8D90818FA18095892326
:1027000080838AA1882309F161E00E9410098AA1CF
:1027100061E00E94C30964EF71E080E090E00E94F4
:1027200055088AA160E00E94C30964EF71E080E06F
:1027300090E00E9455088AA161E00E94C30964EFFD
:1027400071E080E090E00E9455080115110521F02C
:10275000CE01B8010E94A012DF91CF911F910F917D
:1027600008951F93CF93DF93EC01162F64E072E07E
:102770000E94EE12112351F4CE016FE372E00E9429
:10278000A01282E089A781E08AA705C0CE016CE48F
:1027900072E00E94A012CE0169E572E00E94A012D0
:1027A000DF91CF911F910895FC011382128288EE70
:1027B00093E0A0E0B0E084839583A683B78386EEA0
:1027C00092E091838083128E118E14860895FC010D
:1027D00086EE92E0918380830895FC01A18DB28DF5
:1027E000109719F420E030E009C0ED91FC911197A9
:1027F0000190F081E02DCD0119959C01C90108954A
:10280000DC015996ED91FC915A97309719F420E02C
:1028100030E018C024893589468957898385948595
:10282000A585B685281B390B4A0B5B0B2030B0E819
:102830003B07B0E04B07B0E05B0720F02FEF3FE72E
:1028400040E050E0C9010895DC015996ED91FC91FA
:102850005A97309711F480E008958681811181E0C4
:102860000895CF93DF93EC01898D9A8D009741F005
:102870000E94461C898D9A8D0E94D7041A8E198E4B
:10288000DF91CF910895FC01818D928D009711F415
:1028900080E008950E94361B0895FC01818D928D81
:1028A000009711F00E94FC1B0895FC01818D928D10
:1028B000009719F420E030E003C00E941D1D9C0128
:1028C000C9010895DF93CF930F92CDB7DEB7FC0116
:1028D000818D928D009749F0BE016F5F7F4F41E07F
:1028E00050E00E941D1D019719F02FEF3FEF03C02C
:1028F0008981282F30E0C9010F90CF91DF91089591
:10290000EF92FF920F931F93DF93CF930F92CDB768
:10291000DEB77C01DC0159968D919C915A97009706
:1029200019F400E010E01FC0BE016F5F7F4F41E06F
:1029300050E00E941D1D019719F00FEF1FEF13C00B
:102940008981082F10E0D7015996ED91FC915A9793
:102950004385548565857685415050406040704080
:10296000CF010E94361BC8010F90CF91DF911F91BC
:102970000F91FF90EF900895FC01818D928D00974B
:1029800019F420E030E003C00E94621F9C01C901DD
:102990000895FC01818D928D009719F420E030E0BC
:1029A00003C00E941A219C01C9010895EF92FF9271
:1029B0000F931F93CF93DF93EC01F62EE72E8A013E
:1029C0001B821A8288EE93E0A0E0B0E08C839D83A6
:1029D000AE83BF8386EE92E0998388838EE190E098
:1029E0000E942D049A8F898F009791F0DC018F2D22
:1029F0009E2D9C01F9018EE101900D928150E1F72D
:102A0000CE010C96B8014CE050E00E944A05188EA9
:102A1000DF91CF911F910F91FF90EF900895109249
:102A2000DE071092DF071092E2071092E40782E0BF
:102A300090E0A0E0B0E08093E6079093E707A093D2
:102A4000E807B093E9071092FD071092070810926B
:102A5000060888EF92E0909305088093040810928E
:102A60000A0808952F923F924F925F926F927F9241
:102A70008F929F92AF92BF92CF92DF92EF92FF928E
:102A80000F931F93DF93CF93CDB7DEB7C954D040D8
:102A90000FB6F894DEBF0FBECDBF582E492EFB01F6
:102AA0003A01190185A596A5998B888B28EF32E00C
:102AB0003F872E8787A58A8B80A98B8B81A98C8BDA
:102AC00082A993A9A4A9B5A98D8B9E8BAF8BB88F32
:102AD00086A997A9A0ADB1AD898F9A8FAB8FBC8F16
:102AE00082AD93ADA4ADB5AD8D8F9E8FAF8FB8A3E2
:102AF00086AD89A3FF9681919191A191B1918AA30D
:102B00009BA3ACA3BDA381919191A191B1918EA3FF
:102B10009FA3A8A7B9A7808191819BA78AA71FA679
:102B20001EA63DA72CA71AAA7A018E01025F1F4F8D
:102B30003CE2A32EB12CAC0EBD1E4E010894811CAC
:102B4000911C35C0D7018C918F3221F40894E11C7F
:102B5000F11C2DC0422F4E194D3008F04CE0C42E10
:102B6000DD24C401B701A6010E944A05F401EC0D61
:102B7000FD1D1082C5010E94461CC501B801A401BB
:102B800021E00E949A21882351F4E52DF42D13822F
:102B9000128288EF92E09183808316826AC0EC0CE7
:102BA000FD1CC8010E94461CC50158018C01C701CB
:102BB0006FE270E00E943F059C01009719F6E6184D
:102BC000F708F101F182E082E52DF42DD80112968B
:102BD0008D919C9113979383828388EF92E09183E8
:102BE000808314968C911497848315968C911597F5
:102BF000858316968C911697868317962D913D9115
:102C00004D915C911A9727833087418752871B9695
:102C10002D913D914D915C911E9723873487458777
:102C200056871F962D913D914D915C915297278724
:102C3000308B418B528B53968C915397838B549648
:102C40002D913D914D915C915797248B358B468BFF
:102C5000578B58962D913D914D915C915B97208FAC
:102C6000318F428F538F5C968D919C915D97958F9C
:102C7000848F852D942DC75BDF4F0FB6F894DEBF90
:102C80000FBECDBFCF91DF911F910F91FF90EF90BD
:102C9000DF90CF90BF90AF909F908F907F906F907C
:102CA0005F904F903F902F9008959F92AF92BF9268
:102CB000CF92DF92EF92FF920F931F93DF93CF9308
:102CC000CDB7DEB7CA57D0400FB6F894DEBF0FBEFF
:102CD000CDBFC82E992E8A01D22E43E0A42EB12C4E
:102CE000AC0EBD1EC501A8019E012F5F3F4F0E9483
:102CF0003215E980FA80E00EF11EF701808148EF7D
:102D000052E02985882309F041C08D819E819CA3D2
:102D10008BA35AA349A38F818DA388858EA32FA34C
:102D20008A859B85AC85BD8588A799A7AAA7BBA7DF
:102D30008E859F85A889B9898CA79DA7AEA7BFA7B7
:102D40008A899B89AC89BD8988AB99ABAAABBBAB9F
:102D50008E898CAB8F89988DA98DBA8D8DAB9EABEA
:102D6000AFABB8AF8B8D9C8DAD8DBE8D89AF9AAF5B
:102D7000ABAFBCAF8F8D98A19EAF8DAF8C2D992D31
:102D8000BE016F5D7F4F48EA52E0AAC0FE01EF5BD3
:102D9000FF4F11821082DE01DF9611965C934E93F5
:102DA000FE01EB5BFF4F10822223A9F0225022305C
:102DB00050F4CD0164E078E0A7012D2D0E949A2106
:102DC000882389F408C0CD01B501A7012D2D0E94EB
:102DD0009A21882329F48C2D992D0E94D41382C026
:102DE000C5010E94461CF6E0DF2259F0FE01ED5AB3
:102DF000FF4F4081518162817381CE01CF960E9445
:102E0000361B9E01235A3F4FFE01EF5BFF4F80812F
:102E10009181F9019383828388EF92E0918380838B
:102E2000FE01ED5BFF4F8081F9018483FE01EC5BC5
:102E3000FF4F8081F9018583FE01EB5BFF4F8081AD
:102E4000F9018683FE01EA5BFF4F80819181A281B7
:102E5000B381F90187839087A187B287FE01E65B82
:102E6000FF4F80819181A281B381F901838794878B
:102E7000A587B687FE01E25BFF4F80819181A28129
:102E8000B381F9018787908BA18BB28BFE01EE5A3B
:102E9000FF4F8081F901838BFE01ED5AFF4F808146
:102EA0009181A281B381F901848B958BA68BB78B1D
:102EB000FE01E95AFF4F80819181A281B381F9011E
:102EC000808F918FA28FB38FFE01E55AFF4F8081D3
:102ED0009181F901958F848F8C2D992DB901A701CE
:102EE0000E94D6148C2D992DC658DF4F0FB6F8943A
:102EF000DEBF0FBECDBFCF91DF911F910F91FF902D
:102F0000EF90DF90CF90BF90AF909F9008950F9378
:102F10001F93CF93DF93EC01462F61E00E94211AAB
:102F20008823D1F08E01035F1F4FC801BE0141E02D
:102F30000E943B23882339F4C801BE0140E00E946F
:102F40003B23882349F0CE018B96B8010E947C1E5A
:102F5000882319F081E001C080E0DF91CF911F91BB
:102F60000F910895FC01673020F086E1858380E0B1
:102F70000895262F30E060FD02C0663019F48DB54B
:102F80008E7F02C08DB581608DBD8CB58C7F8CBD70
:102F90004CB522FD02C090E001C092E03695279525
:102FA000822F8170842B892B8CBD81E00895FF9244
:102FB0000F931F93CF93DF938B010E944708EB0180
:102FC000FF24FA94FEBC0DB407FEFDCF8EB58F3FF3
:102FD00011F481E008C00E9447086C1B7D0B60174C
:102FE000710780F380E0DF91CF911F910F91FF90E7
:102FF0000895FC01848160E00E94C3090895FC01EA
:10300000848161E00E94C30908951F93CF93DF93E9
:10301000EC01162FBA018C85882319F4AFEFBFEFAE
:1030200030C0A0E0B0E040E050E02B2F332727FD78
:103030003A95FB01E40FF51F808190E0282739279E
:103040003070C901E4E095958795EA95E1F782270C
:103050009327BA2FAA27A827B9279C01322F222706
:103060003295307FA227B32725E0880F991F2A9534
:10307000E1F7A827B9274F5F5F4F82E0403058073C
:10308000A1F61EBDFB0120E030E00DB407FEFDCF30
:1030900080818EBD0DB407FEFDCF81818EBD2E5F78
:1030A0003F4F329682E02030380779F70DB407FEA3
:1030B000FDCF8B2F992787FD9A958EBD0DB407FE06
:1030C000FDCFAEBD0DB407FEFDCF8FEF8EBD0DB4AD
:1030D00007FEFDCF8EB58A878F71853011F481E0B0
:1030E00006C081E18D83CE010E94FF1780E0DF9151
:1030F000CF911F910895FF920F931F93CF93DF936A
:10310000EC010E9447088B01FF24FA9409C00E9439
:103110004708601B710B6D52714010F08FE00DC0BD
:10312000FEBC0DB407FEFDCF8EB58A878F3F79F3C5
:103130008E3F11F481E006C08DE08D83CE010E94A8
:10314000FF1780E0DF91CF911F910F91FF900895BD
:10315000CF93DF93EC018E818823D1F08FEF8EBD6A
:103160002F8138854FEF04C00DB407FEFDCF4EBD53
:103170002F5F3F4FC901019781509240A8F33887D4
:103180002F830DB407FEFDCFCE010E94FF171E82D4
:10319000DF91CF910895DF92EF92FF920F931F93EB
:1031A000CF93DF93EC01D62E79018A010E94A818F3
:1031B000CE010E94F917CE016CE271E00E94D71790
:1031C0008D2D80648EBD0DB407FEFDCF28E130E06B
:1031D000D801C701022E04C0B695A795979587958B
:1031E0000A94D2F78EBD0DB407FEFDCF28503040B3
:1031F0008FEF283F380761F7DD2011F485E906C01D
:1032000088E0D81611F487E801C08FEF8EBD0DB4A9
:1032100007FEFDCF90E02FEF2EBD0DB407FEFDCFD2
:103220008EB587FF02C09150B9F78A87DF91CF91A1
:103230001F910F91FF90EF90DF900895CF92DF9252
:10324000EF92FF920F931F93CF93DF93EC017A01DC
:103250008B0169018B85833039F0B9E0EE0CFF1CDE
:10326000001F111FBA95D1F7CE0168E1A80197019F
:103270000E94CB18882311F084E023C0CE016EEFAA
:10328000A6010E9405188823E9F0CE0168E572E0E6
:103290000E94D717882311F485E113C0CE016DE099
:1032A00020E030E040E050E00E94CB18882341F459
:1032B0008FEF8EBD0DB407FEFDCF8EB5882379F05C
:1032C00084E18D83CE010E94FF1780E0DF91CF91D2
:1032D0001F910F91FF90EF90DF90CF900895CE0156
:1032E0000E94FF1781E0F2CF8F929F92AF92BF9220
:1032F000CF92DF92EF92FF920F931F93CF93DF93C2
:10330000EC015A016B0149010115110509F47BC05B
:10331000C801820F931F8150924008F06FC08E81C8
:10332000882371F088819981AA81BB814817590748
:103330006A077B0729F48F8198858816990618F506
:10334000A882B982CA82DB828B85833039F029E07A
:10335000AA0CBB1CCC1CDD1C2A95D1F7CE0161E167
:10336000A60195010E94CB18882319F083E08D8374
:1033700045C0CE010E947B18882309F43FC01886FF
:103380001F8281E08E838FEF8EBD8F8198852FEF16
:1033900005C00DB407FEFDCF2EBD01968815990519
:1033A000C0F398878F83D801119720E030E09FEF1A
:1033B0000BC00DB407FEFDCF8EB5F701E20FF31F72
:1033C00080839EBD2F5F3F4F2A173B0790F30DB4BC
:1033D00007FEFDCF8EB5AE0DBF1D8C932F813885B6
:1033E000200F311F38872F838985882319F02050BB
:1033F000324048F0CE010E94A81805C0CE010E94BC
:10340000FF1780E001C081E0DF91CF911F910F9104
:10341000FF90EF90DF90CF90BF90AF909F908F90F4
:103420000895EF92FF920F931F93790120E030E00F
:1034300000E012E00E9474191F910F91FF90EF902D
:103440000895BF92CF92DF92EF92FF920F931F9356
:10345000CF93DF93EC01B62E1B8619861E821D8248
:103460001C864C830E9447086B018C8161E00E949E
:103470001009CE010E94FF1782E360E00E9410094C
:1034800083E361E00E94100984E361E00E94100977
:1034900085E361E00E94100985E361E00E94C309B1
:1034A00083E58CBD8DB58E7F8DBD80E09FEF9EBD89
:1034B0000DB407FEFDCF8F5F8A30C9F7CE010E94A1
:1034C000F91709C00E9447086C197D09615D7740B2
:1034D00010F081E05EC0CE0160E020E030E040E02E
:1034E00050E00E94CB18182F8A87813059F7CE01FF
:1034F00068E02AEA31E040E050E00E94CB1882FF09
:1035000002C01B8711C080E02FEF2EBD0DB407FE57
:10351000FDCF9EB58F5F8430C1F79A879A3A11F03C
:1035200082E037C082E08B878B85823021F0EE24E9
:10353000FF2487010FC0E12CF12C012D50E4152F41
:1035400009C00E9447086C197D09615D774010F041
:1035500088E01FC0CE0167E320E030E040E050E0AB
:103560000E94CB18CE0169E2A80197010E94CB18F6
:103570008A87882331F78B85823031F5CE016AE363
:1035800020E030E040E050E00E94CB18882339F082
:1035900086E08D83CE010E94FF1780E01CC08FEF74
:1035A0008EBD0DB407FEFDCF8EB5807C803C11F43E
:1035B00083E08B8780E09FEF9EBD0DB407FEFDCFBB
:1035C0002EB58F5F8330C1F7CE010E94FF17CE0169
:1035D0006B2D0E94B217DF91CF911F910F91FF9039
:1035E000EF90DF90CF90BF900895CF93DF93EC01E1
:1035F000DB0180E090E020E2FD01E80FF91F20836D
:1036000001968B309105C1F757E040E021C02E3282
:1036100019F08BEE92E007C05A3019F15AE048E0F9
:1036200017C03217F1F0FC01019634913323C9F72A
:103630005417B8F02132A8F02F3798F4822F815612
:103640008A3108F42052FD01E40FF11D20834F5F01
:1036500029912223E1F690E08C91803219F091E0DB
:1036600001C090E0892FDF91CF9108956F927F92F2
:103670008F929F92AF92BF92CF92DF92EF92FF9282
:103680000F931F93CF93DF93EC017A018B012E816F
:10369000222309F480C08C899D89AE89BF89841753
:1036A0009507A607B70708F476C085C0E114F104B2
:1036B0000105110549F41F82188619861A861B8692
:1036C0001C861D861E8665C02B853C854D855E85C6
:1036D000EC8DFD8D858590E009962150304040406D
:1036E000504039014A01082E04C09694879477947B
:1036F00067940A94D2F72F5F3F4F4F4F5F4F089464
:10370000E108F108010911095701680104C0D694C4
:10371000C794B794A7948A95D2F70894E11CF11C3A
:10372000011D111DA614B704C804D90428F02115E1
:1037300031054105510549F4888D998DAA8DBB8DC0
:103740008F839887A987BA8716C0A618B708C808B4
:10375000D90811C04F81588569857A858C8D9D8DDA
:1037600094010E941C250894A108B108C108D10841
:10377000882331F410C087E0882E912C8C0E9D1E7A
:10378000A114B104C104D10429F7EB86FC860D878E
:103790001E8781E001C080E0DF91CF911F910F91E2
:1037A000FF90EF90DF90CF90BF90AF909F908F9061
:1037B0007F906F900895223009F078CFE6CFCF93B5
:1037C000DF93EC01462F6F85788989899A890E9459
:1037D0000023882319F420E030E00AC08B89282FC9
:1037E00030E095E0220F331F9A95E1F72A5D374FBD
:1037F000C901DF91CF9108950F931F93CF93DF936A
:103800008C01FC0186818823D9F1858187FF35C031
:10381000C80161E00E94DF1BEC01009789F1F8010B
:103820008681823040F484899589A689B7898C8FF6
:103830009D8FAE8FBF8FF801808D918D9B8F8A8F6A
:10384000808D918DA28DB38DCD01AA27BB279D8B35
:103850008C8BE0912408F0912508309751F0BE013F
:103860006A5E7F4FCE0148961995888D998D9B8B06
:103870008A8BF80185818F7785830E94A12201C000
:1038800080E0DF91CF911F910F910895CF93DF9347
:10389000EC010E94FC1B882311F01E8281E0DF9165
:1038A000CF9108956F927F928F929F92AF92BF9225
:1038B000CF92DF92EF92FF920F931F93DF93CF93FC
:1038C00000D00F92CDB7DEB77C015A016B01DC014D
:1038D00016968C911697813009F08FC015968C91B1
:1038E00081FF8BC09EC00097A105B10511F481E056
:1038F00085C0F7016384748485849684C701B6010A
:10390000A5010E94361B882309F477C0D7015C9675
:103910008D919C915D97A114B104C104D10489F4E7
:1039200058964D915D916D917C915B970E948F258A
:10393000882309F462C0F701108E118E128E138E47
:103940003DC0D70117964D915D916D917C911A976D
:103950009E012F5F3F4F0E941C25882309F44DC014
:10396000D7015C96ED91FC915D9749815A816B81FD
:103970007C818789803129F088EF9FEFAFEFBFE02E
:1039800004C088EF9FEFA0E0B0E0481759076A072E
:103990007B07A0F4CF010E948F25882371F1F701E6
:1039A0004781508561857285848D958D0FEF1FEF5E
:1039B0002FEF3FE00E9480248823F9F0D70154962E
:1039C000AD92BD92CD92DC92579715968C9115973A
:1039D000806815968C93C7010E94FC1B882369F0B0
:1039E000B601A5016A147B048C049D0410F4B40193
:1039F000A301C7010E94361B01C080E00F900F9009
:103A00000F900F90CF91DF911F910F91FF90EF904A
:103A1000DF90CF90BF90AF909F908F907F906F90EE
:103A20000895F70184899589A689B7898417950730
:103A3000A607B70708F057CFE0CF2F923F924F92DB
:103A40005F926F927F928F929F92AF92BF92CF922E
:103A5000DF92EF92FF920F931F93CF93DF93EC01CE
:103A60002A018E81882309F4C6C08D8180FFC3C0DE
:103A7000D8C025014E185F084B0177E0272E312C66
:103A80002C0E3D1E3201B1C02B853C854D855E85D7
:103A90006FEFA62E61E0B62EA222B3228E817901AD
:103AA0008A0199E016950795F794E7949A95D1F7CE
:103AB000EC8DFD8D823049F4428D538D648D758D72
:103AC0004E0D5F1D601F711F3FC0D480DA94DE2051
:103AD000A114B104D9F4DD20C9F421153105410543
:103AE000510549F4888D998DAA8DBB8D8F83988758
:103AF000A987BA870BC04F81588569857A85CF0120
:103B000091010E941C25882309F475C0EC8DFD8D60
:103B10004F81588569857A85425050406040704099
:103B2000058404C0440F551F661F771F0A94D2F7FF
:103B300086859785A089B189480F591F6A1F7B1F09
:103B40004D0D511D611D711D80E092E08A199B0988
:103B500063018615970508F46C018D8186FD06C00A
:103B600080E0C81682E0D80609F073C08091B602E2
:103B70009091B702A091B802B091B90248175907C5
:103B80006A077B0709F465C08091260A9091270A8D
:103B90009501860174010E947419882361F18C0CCF
:103BA0009D1C12C095012A5D374FA9014C0D5D1D6A
:103BB000D401F90102C081918D93E417F507D9F77B
:103BC000E21BF30B8E0E9F1E960140E050E08B85AA
:103BD0009C85AD85BE85820F931FA41FB51F8B8763
:103BE0009C87AD87BE876C187D086114710409F04D
:103BF0004BCFA20102C04FEF5FEFCA01DF91CF911F
:103C00001F910F91FF90EF90DF90CF90BF90AF90FA
:103C10009F908F907F906F905F904F903F902F90EC
:103C20000895AC88BD88CE88DF88EB84FC840D8540
:103C30001E859A0140E050E0D601C5018E199F090A
:103C4000A00BB10B82179307A407B50708F411CF97
:103C500013CFCB01BA0140E00E940023882309F072
:103C6000A1CFC9CFCF92DF92EF92FF920F931F9314
:103C7000DF93CF930F92CDB7DEB76C01FC01868145
:103C8000823070F0E384F48405851685C601BE0198
:103C90006F5F7F4F41E050E00E941D1D019769F06A
:103CA00020E030E0C9010F90CF91DF911F910F917B
:103CB000FF90EF90DF90CF900895F6018385948573
:103CC000A585B6854F96A11DB11D83879487A587CD
:103CD000B687F5E016950795F794E794FA95D1F72E
:103CE0008E2D8F70282F30E0E5E0220F331FEA95EC
:103CF000E1F72A5D374FD6CF0F931F93CF93DF9312
:103D0000EC018B018E81882309F041C0FB0187897A
:103D10008031B1F482E08E83188E198E1A8E1B8E3C
:103D2000808D918DA0E0B0E045E0880F991FAA1F1B
:103D3000BB1F4A95D1F78C8B9D8BAE8BBF8B15C06B
:103D4000803229F583E08E83FB01428D538D648D93
:103D5000758D488F598F6A8F7B8F9E012C5E3F4FE8
:103D6000C8010E94E825882391F01D8F0C8F81E007
:103D70008D831F82188619861A861B861C861D86CF
:103D80001E861F86188A198A1A8A1B8A01C080E03B
:103D9000DF91CF911F910F9108951F93CF93DF93E0
:103DA000EC01142FE62FF0E075E0EE0FFF1F7A957F
:103DB000E1F7EA5DF74F8385817121F0842F8274EA
:103DC00009F054C06B8B8091B6029091B702A0911C
:103DD000B802B091B9028F87988BA98BBA8B84896E
:103DE0009589A0E0B0E0BC0155274427828D938DD2
:103DF000A0E0B0E0482B592B6A2B7B2B488F598FC2
:103E00006A8F7B8F838590E088719070009751F462
:103E1000848D958DA68DB78D8C8B9D8BAE8BBF8B36
:103E200081E00CC0409711F59E012C5E3F4F8C8DB8
:103E30009D8D0E94E8258823C9F084E08E83812F20
:103E40008F708D831F82188619861A861B861C86A2
:103E50001D861E8616FD02C081E009C0CE0140E02D
:103E600050E060E070E00E94521C01C080E0DF91F1
:103E7000CF911F910895CF93DF93EC019C01295FAF
:103E80003F4F8C8D9D8D41E050E060E070E00E94DE
:103E900057268823A1F0888D998DAA8DBB8D009718
:103EA000A105B10559F48F819885A985BA85888FB8
:103EB000998FAA8FBB8F8D8180688D8381E0DF9180
:103EC000CF9108952F923F924F925F927F928F925F
:103ED0009F92AF92BF92CF92DF92EF92FF920F9399
:103EE0001F93DF93CF9300D000D0CDB7DEB76C0126
:103EF000162F072F5E834D83DC0116968C91169743
:103F0000813009F072C115968C9181FF6EC18FC10D
:103F1000F601448955896689778983859485A585C5
:103F2000B68584179507A607B70731F0C6010E942A
:103F3000361B882309F459C1812F902F9C01290138
:103F40002D803E8019C1D6015C96ED91FC915D9764
:103F5000DA01C90119E0B695A795979587951A9545
:103F6000D1F774807A9478227FEF872E71E0972EB4
:103F700082229322772009F050C08114910409F025
:103F80004CC0D60117964D915D916D917C911A9719
:103F9000411551056105710581F458968D919D91EA
:103FA0000D90BC91A02D0097A105B10559F1F60126
:103FB00087839087A187B28730C0CF019E012F5F92
:103FC0003F4F0E941C25882319F41E821D8215C1B3
:103FD00029813A814B815C81D6015C96ED91FC91FF
:103FE0005D978789803129F088EF9FEFAFEFBFE0C1
:103FF00004C088EF9FEFA0E0B0E0281739074A0718
:104000005B0730F0C6010E943B1F882331F4EDC0EE
:10401000F601278330874187528780E092E0881934
:10402000990951018215930508F45C01D6015C964B
:10403000ED91FC915D971796ED90FD900D911C917F
:104040001A978EEF9FEFAFEFBFEFE80EF91E0A1F32
:104050001B1F058404C0EE0CFF1C001F111F0A94D7
:10406000D2F786859785A089B189E80EF91E0A1FC7
:104070001B1FE70CF11C011D111D90E0A91692E019
:10408000B90651F58091B6029091B702A091B8029D
:10409000B091B9028E159F05A007B10761F48FEFAB
:1040A0009FEFAFEFBFEF8093B6029093B702A0935C
:1040B000B802B093B9028091260A9091270AB801FC
:1040C000A70192010E941E19882309F48EC0A0E066
:1040D000B2E04A0E5B1E3EC08114910409F5F60160
:1040E000238534854585568584899589A689B78930
:1040F000281739074A075B0798F00E94A1228823F6
:1041000009F473C0E092B602F092B7020093B802CD
:104110001093B9028091280A81608093280A08C010
:10412000C801B70141E00E940023882309F45DC063
:1041300094012A5D374FA9014A0D5B1DD201F90197
:1041400002C08D918193E417F507D9F7E21BF30BB9
:104150004E0E5F1E2A183B08950140E050E0F60124
:1041600083859485A585B685820F931FA41FB51FEF
:1041700083879487A587B687D6011B962D913D919D
:104180004D915C911E972114310409F0DCCE5496B8
:104190008D919D910D90BC91A02D82179307A4073E
:1041A000B50748F4F601248B358B468B578B8581F8
:1041B0008068858311C08091240890912508892BFF
:1041C00059F08D819E81892B39F0D60115968C91FD
:1041D0001597806815968C93F601858183FF0DC035
:1041E000C6010E94FC1B882341F481E0D60114968D
:1041F0008C93EFEFFFEFFE83ED838D819E812696FA
:104200000FB6F894DEBF0FBECDBFCF91DF911F91E7
:104210000F91FF90EF90DF90CF90BF90AF909F9065
:104220008F907F905F904F903F902F90089582FDE8
:104230006FCE82CEDB010D900020E9F71197A61B0F
:10424000B70BAD010E94621F0895DF93CF930F92C9
:10425000CDB7DEB76983BE016F5F7F4F41E050E0AD
:104260000E94621F0F90CF91DF910895DF92EF922D
:10427000FF920F931F93CF93DF93EC010E943B1F9C
:10428000882309F44EC0EC8DFD8DEF80F8840985FC
:104290001A858EEF9FEFAFEFBFEFE80EF91E0A1FF2
:1042A0001B1F058404C0EE0CFF1C001F111F0A9485
:1042B000D2F786859785A089B189E80EF91E0A1F75
:1042C0001B1FD4800894E108F108010911090BC0F3
:1042D000C801B7016D0D711D811D911D0E94DC2269
:1042E0008823F9F0DA94DD2099F7EC8DFD8D20E03C
:1042F00032E040E050E0058404C0220F331F441F29
:10430000551F0A94D2F78C899D89AE89BF89820F87
:10431000931FA41FB51F8C8B9D8BAE8BBF8B81E031
:1043200001C080E0DF91CF911F910F91FF90EF903E
:10433000DF9008956F927F928F929F92AF92BF927B
:10434000CF92DF92EF92FF920F931F93DF93CF9361
:10435000CDB7DEB72B970FB6F894DEBF0FBECDBF3B
:104360005C016B01822EDC0116968C91882309F08A
:10437000D2C0CA018E010F5F1F4FB8010E94F51A0B
:10438000882309F4C8C0F601848D958DD5015D960A
:104390009C938E935C971782108611861286D601A5
:1043A0001B961D921D921D921C921E9799243801F6
:1043B00041C0C6010E94321EFC01009709F4ABC047
:1043C00085E016950795F794E7948A95D1F71E2D09
:1043D0001F708081882311F0853ED1F4992091F4DB
:1043E000D50153961C9353972091B6023091B70292
:1043F0004091B8025091B9021F962D933D934D9371
:104400005C9352978081882399F49924939421C0D6
:10441000C301BF014BE050E00E943205009751F408
:10442000882D8073803309F476C0C501612F6FC079
:1044300099249394F601E384F48405851685848990
:104440009589A689B789E816F9060A071B0708F4B3
:10445000B0CF882D8271823109F05DC0992041F082
:10446000C50161E00E94DF1B8C01009789F453C0F5
:10447000D60116968C91823009F44DC0C6010E9477
:104480003621882309F447C0F501138A06E218E0B3
:1044900080E2D8011D928A95E9F7D801FE01319694
:1044A0008BE001900D928150E1F7E0912408F091AA
:1044B0002508309739F0B801625F7F4FC8014096F8
:1044C000199509C081E298E2F801918B808B80E018
:1044D00098E097878687D80150968D919C91519747
:1044E00053969C938E93529759969C938E9358977C
:1044F0001E968D919C911F9757969C938E935697DD
:104500000E94A122882339F0C501F5016389482D55
:104510000E94CD1E01C080E02B960FB6F894DEBF3E
:104520000FBECDBFCF91DF911F910F91FF90EF9004
:10453000DF90CF90BF90AF909F908F907F906F90C3
:1045400008958091280A882399F14091B6025091EC
:10455000B7026091B8027091B9028091260A9091D9
:10456000270A26E238E00E941E19882319F140919B
:10457000290A50912A0A60912B0A70912C0A411540
:1045800051056105710591F08091260A9091270AE5
:1045900026E238E00E941E19882361F01092290A51
:1045A00010922A0A10922B0A10922C0A1092280AB2
:1045B00081E0089580E00895EF92FF920F931F939A
:1045C0007B018C010E94A1228823A9F0E6E2F8E099
:1045D00011928AE0E632F807D9F7E092B602F0923B
:1045E000B7020093B8021093B9028091280A816043
:1045F0008093280A81E01F910F91FF90EF9008951A
:10460000DF92EF92FF920F931F937B018C01D42EC8
:104610008091B6029091B702A091B802B091B90210
:104620008E159F05A007B107C1F00E94A122882323
:10463000D9F08091260A9091270AB801A70126E2B5
:1046400038E00E94111A882379F0E092B602F092C5
:10465000B7020093B8021093B9028091280A8D29FD
:104660008093280A81E001C080E01F910F91FF90A4
:10467000EF90DF9008958F929F92AF92BF92CF926A
:10468000DF92EF92FF920F931F93CF93DF936C0112
:10469000142F7093270A6093260A442321F4882458
:1046A0009924540140C0453008F01CC160E070E01E
:1046B00080E090E040E00E940023882309F412C1CA
:1046C000C12FD0E02197FE0174E0EE0FFF1F7A9515
:1046D000E1F7EA5DF74FE254FE4F8081EE5BF14077
:1046E00090E08F779070892B09F0FCC0E653FE4F65
:1046F00080819181A281B38184369105A105B105A4
:1047000008F4F0C064E0CC0FDD1F6A95E1F7C451F6
:10471000D64F88809980AA80BB8081149104A1041F
:10472000B10409F4DFC0C501B40140E00E940023D8
:10473000882309F4D7C080913108909132088050C5
:10474000924009F0CFC020913608222309F4CAC054
:104750008091340890913508892B09F4C3C0809169
:104760003308882309F4BEC0F601228B80913308F8
:104770008483158661E070E007C04F5FF6014587CE
:104780004150483008F0AEC0F6014585848190E084
:104790009B01042E02C0220F331F0A94E2F78217F6
:1047A000930759F720913C0830913D0821153105B8
:1047B00019F040E050E008C020914A0830914B08C1
:1047C00040914C0850914D08F6012583368347836C
:1047D0005087E0903408F090350800E010E0E80CD5
:1047E000F91C0A1D1B1DE38AF48A058B168B809128
:1047F000370890913808918F808F6091360870E06B
:1048000080E090E00E94002A6E0D7F1D801F911FA6
:10481000F601628F738F848F958F209137083091C6
:10482000380855E0220F331F5A95E1F721503E4FCB
:10483000232F3327269540E050E0260F371F481FCF
:10484000591F26873787408B518B8091390890916B
:104850003A08009719F0A0E0B0E008C0809146083F
:1048600090914708A0914808B091490885017401CA
:10487000E21AF30A040B150BA8019701280F391F40
:104880004A1F5B1FF601058404C05695479537956E
:1048900027950A94D2F72187328743875487253F8B
:1048A000FFE03F07F0E04F07F0E05F0710F48CE017
:1048B00006C0255F3F4F4040504028F480E1F6019C
:1048C000878B81E010C08091520890915308A0918D
:1048D0005408B0915508F601828F938FA48FB58F3D
:1048E00080E2EECF80E0DF91CF911F910F91FF909A
:1048F000EF90DF90CF90BF90AF909F908F900895F2
:104900004F925F926F927F928F929F92AF92BF92DF
:10491000CF92DF92EF92FF920F931F93CF93DF938B
:10492000EC016A017B012801390142305105610522
:10493000710508F46FC089859A85AB85BC850196A1
:10494000A11DB11D84179507A607B70708F462C01B
:104950002B893C894D895E898F89803129F499277B
:104960008F2D7E2D6D2D09C0C701B60117E09695DC
:104970008795779567951A95D1F74B015C01820E63
:10498000931EA41EB51E8091B6029091B702A0910D
:10499000B802B091B90288169906AA06BB0639F08A
:1049A000C501B40140E00E940023882399F18F895A
:1049B000803149F4F601F070EE0FFF1FEA5DF74F0A
:1049C000518240820DC0F601EF77F070EE0FFF1FAD
:1049D000EE0FFF1FEA5DF74F4082518262827382C1
:1049E0008091280A81608093280A8A89823080F029
:1049F0008D819E81AF81B885880E991EAA1EBB1E2F
:104A00008092290A90922A0AA0922B0AB0922C0A2C
:104A100081E001C080E0DF91CF911F910F91FF9065
:104A2000EF90DF90CF90BF90AF909F908F907F904E
:104A30006F905F904F900895CF92DF92EF92FF9228
:104A40000F931F93CF93DF93EC017A018B016901E0
:104A500089859A85AB85BC850196A11DB11D8417FA
:104A60009507A607B70708F450C02B893C894D89E4
:104A70005E898F89803129F49927812F702F6F2DBE
:104A800009C0C801B701E7E09695879577956795C6
:104A9000EA95D1F7260F371F481F591F8091B6029C
:104AA0009091B702A091B802B091B90228173907C6
:104AB0004A075B0739F0CA01B90140E00E940023B0
:104AC000882319F18F89803159F4F701F070EE0FC6
:104AD000FF1FEA5DF74F80819181A0E0B0E00EC03A
:104AE000F701EF77F070EE0FFF1FEE0FFF1FEA5D8B
:104AF000F74F80819181A281B381BF70F6018083DD
:104B00009183A283B38381E001C080E0DF91CF91E4
:104B10001F910F91FF90EF90DF90CF900895AF928B
:104B2000BF92CF92DF92EF92FF920F931F93DF938A
:104B3000CF9300D00F92CDB7DEB76C017A018B0115
:104B400082E090E0A0E0B0E0F60180839183A28350
:104B5000B3835E010894A11CB11CC601B801A70172
:104B600095010E941C25882319F1C601B801A701EF
:104B700000E010E020E030E00E9480248823C1F0B3
:104B8000E980FA800B811C81F6018789803129F048
:104B900088EF9FEFAFEFBFE004C088EF9FEFA0E08A
:104BA000B0E0E816F9060A071B07B8F281E001C079
:104BB00080E00F900F900F900F90CF91DF911F9199
:104BC0000F91FF90EF90DF90CF90BF90AF9008953E
:104BD0004F925F926F927F928F929F92AF92BF920D
:104BE000CF92DF92EF92FF920F931F93DF93CF93B9
:104BF00000D00F92CDB7DEB76C0149835A836B8327
:104C00007C833901EE24FF2487012E010894411C86
:104C1000511C812CA2E09A2EA12CB12C49815A81E1
:104C20006B817C81C60192010E941C25882351F171
:104C3000D501C401F601058404C0880F991FAA1F7D
:104C4000BB1F0A94D2F7E80EF91E0A1F1B1F298109
:104C50003A814B815C818789803129F088EF9FEF11
:104C6000AFEFBFE004C088EF9FEFA0E0B0E02817EF
:104C700039074A075B0790F2F301E082F182028371
:104C8000138381E00F900F900F900F90CF91DF91E1
:104C90001F910F91FF90EF90DF90CF90BF90AF905A
:104CA0009F908F907F906F905F904F9008952F927C
:104CB0003F924F925F926F927F928F929F92AF92AC
:104CC000BF92CF92DF92EF92FF920F931F93DF93E9
:104CD000CF93CDB7DEB72F970FB6F894DEBF0FBED8
:104CE000CDBF1C014A875B876C877D873F872E87F6
:104CF000D9010D911D912D913C91011511052105B1
:104D0000310549F0480159010894811C911CA11CEE
:104D1000B11C198610C0FC0180809180A280B380F4
:104D200019868A859B85AC85BD850197A105B1054E
:104D300011F491E09987D10119968D919D910D9073
:104D4000BC91A02D0196A11DB11D8D839E83AF83C3
:104D5000B887750164014424552432018E010F5F28
:104D60001F4FF10181859285A385B48548165906A8
:104D70006A067B0608F090C08D819E81AF81B88560
:104D80008C159D05AE05BF0550F482E0882E912C50
:104D9000A12CB12CB2E0CB2ED12CE12CF12CC101F5
:104DA000B701A60198010E941C25882309F474C04C
:104DB00089819A81AB81BC81A70196012F5F3F4F0A
:104DC0004F4F5F4F0097A105B10519F049015A01F6
:104DD0000DC0281939094A095B098A859B85AC856C
:104DE000BD85281739074A075B0759F00894411C0D
:104DF000511C611C711C0894C11CD11CE11CF11CCC
:104E0000B0CFC101A601B7010FEF1FEF2FEF3FE0B9
:104E10000E948024882399F43FC02601370108941A
:104E20004108510861087108C101B301A20197014D
:104E300086010E948024882379F1730162018C1419
:104E40009D04AE04BF0448F3AE85BF854D915D91CE
:104E50006D917C91411551056105710539F0C101D4
:104E6000950184010E9480248823B1F0EE85FF859E
:104E700080829182A282B382F985FF2359F008943F
:104E8000811C911CA11CB11CD1018D929D92AD92EF
:104E9000BC92139781E001C080E02F960FB6F89482
:104EA000DEBF0FBECDBFCF91DF911F910F91FF905D
:104EB000EF90DF90CF90BF90AF909F908F907F90BA
:104EC0006F905F904F903F902F900895882319F432
:104ED0008CB5806202C08CB58F7D8CBD08959CB569
:104EE000937F982B9CBD08952CB5382F33702C7F61
:104EF000322B3CBD2DB590E095958795959587957E
:104F000081702E7F822B8DBD089584E361E00E9425
:104F1000100983E361E00E94100985E361E00E94CB
:104F2000100984E360E00E94C30983E360E00E940B
:104F3000C30985E361E00E94C3098CB580618CBD23
:104F40008CB580648CBD0895FC0175836483718782
:104F500060875783468353874287158A1586148650
:104F60001786168621E0248B8FEF9FEF938B828B21
:104F7000918B808B268B08952F923F924F925F9258
:104F80006F927F928F929F92AF92BF92CF92DF9259
:104F9000EF92FF920F931F93DF93CF9300D00F9266
:104FA000CDB7DEB73C017C836B836A015901FA827D
:104FB000E982222433249801241B350B37FF03C0D8
:104FC000309521953F4FC5014B815C81841B950B2A
:104FD00097FF03C0909581959F4F821793075CF4CC
:104FE00081E0282E312CC601CB80DC809C838B8312
:104FF000C80185015C018B819C81A816B90644F427
:10500000C501AB80BC809C838B83C80186016C0189
:105010002501AB81BC814A1A5B0A7801EC18FD08B6
:10502000F7FE04C0F094E194F108F394C016D106A1
:1050300024F088248A94982C03C0B1E08B2E912C04
:10504000C20162E070E00E94332A8B0125C0D301C7
:10505000ED91FC912114310441F00480F581E02DA3
:10506000C301B6014B815C8107C00480F581E02D4E
:10507000C3016B817C81A60129813A8119950E19A2
:105080001F0917FF04C0C80CD91C040D151DEB81A6
:10509000FC813196FC83EB834B815C81A416B506C1
:1050A000B4F60F900F900F900F90CF91DF911F915A
:1050B0000F91FF90EF90DF90CF90BF90AF909F90B7
:1050C0008F907F906F905F904F903F902F900895BA
:1050D0004F925F926F927F928F929F92AF92BF9208
:1050E000CF92DF92EF92FF920F931F936C015B01BF
:1050F0004A0139012801DC01ED91FC910484F58518
:10510000E02D87011995D601ED91FC91A401415044
:105110005040440D551D0484F585E02DC601B501B0
:1051200093011995D601ED91FC910284F385E02D50
:10513000C601B501A40192011995D601ED91FC912A
:105140000894A108B108A60CB71C0284F385E02DD1
:10515000C601B501A401920119951F910F91FF900D
:10516000EF90DF90CF90BF90AF909F908F907F9007
:105170006F905F904F9008952F923F924F925F9261
:105180006F927F928F929F92AF92BF92CF92DF9257
:10519000EF92FF920F931F93DF93CF93CDB7DEB7BC
:1051A0002F970FB6F894DEBF0FBECDBF5C015E83B4
:1051B0004D8318870F83FA86E986CB86DC01189623
:1051C0008D919C911997681779070CF0A4C01A96D5
:1051D0008D919C911B97481759070CF09CC0EC2DA2
:1051E000F0E0FF87EE87CF01880F991F880F991F86
:1051F0008E0F9F1F860F971F181619060CF08BC075
:10520000CF01F3E0880F991FFA95E1F7840F951FFE
:10521000181619060CF07FC085E0289FA001112404
:105220005A8349832B011B011C825C81553011F488
:1052300080E005C0E981FA81E550FD4F84912C861C
:105240003D866D807E8043011B82C82EDD2480FF59
:105250001CC0D501ED91FC91BB85B13049F40480AF
:10526000F581E02DC501B201A3012F81388522C04F
:105270000088F189E02DC5016C857D85A4012E850E
:105280003F858901EF80F88423C0E985FA852F8165
:105290003885E217F307E9F0D501ED91FC91BB8564
:1052A000B13051F40480F581E02DC501B201A301B4
:1052B00029853A8519950DC00088F189E02DC50131
:1052C0006C857D85A4012E853F858901E984FA845A
:1052D0001995EB81EF5FEB832E853F85820E931E40
:1052E0000894611C711CE83021F0D594C7948C2D72
:1052F000ACCF3C813F5F3C834E855F85240E351EDD
:105300000894411C511C89819A8101969A83898352
:10531000363009F08ACF2F960FB6F894DEBF0FBE55
:10532000CDBFCF91DF911F910F91FF90EF90DF9054
:10533000CF90BF90AF909F908F907F906F905F9035
:105340004F903F902F900895CF92EF92FF920F933E
:105350001F93CF93DF93EC01262F6A3061F42C89E1
:1053600030E013E0220F331F1A95E1F78E859F85F9
:10537000820F931F37C06D30C9F16C857D854E85D6
:105380005F8508891989EA88FB88CC880E94BC2837
:105390002C8986E0289FB00111248C859D85680F9B
:1053A000791F7D876C878E89882301F1422F50E019
:1053B0008AEF9FEF9C01429FC001439F900D529F37
:1053C000900D112428853985820F931F8617970722
:1053D0006CF4B3E0440F551FBA95E1F78E859F85B5
:1053E000840F951F9F878E871D861C8681E090E025
:1053F000DF91CF911F910F91FF90EF90CF90089583
:10540000629FD001739FF001829FE00DF11D649FA8
:10541000E00DF11D929FF00D839FF00D749FF00D34
:10542000659FF00D9927729FB00DE11DF91F639FD5
:10543000B00DE11DF91FBD01CF0111240895AA1B74
:10544000BB1B51E107C0AA1FBB1FA617B70710F06F
:10545000A61BB70B881F991F5A95A9F780959095A1
:10546000BC01CD01089597FB092E07260AD077FDD0
:1054700004D0E5DF06D000201AF4709561957F4FC7
:105480000895F6F7909581959F4F0895A1E21A2E01
:10549000AA1BBB1BFD010DC0AA1FBB1FEE1FFF1FD8
:1054A000A217B307E407F50720F0A21BB30BE40B28
:1054B000F50B661F771F881F991F1A9469F760956F
:1054C0007095809590959B01AC01BD01CF01089529
:1054D000EE0FFF1F0590F491E02D1994F894FFCF83
:1054E00046696C65206E6F7420666F756E643A272E
:1054F0000053442043617264205265616420457208
:10550000726F72210052657374617572616E7420DE
:105510002300204E616D653A2000417661696C2060
:105520006D656D20286279746573293A00496E694A
:105530007469616C697A696E672053442063617293
:10554000642E2E2E006661696C656421004F4B212C
:105550000052617720534420496E697469616C6917
:105560007A6174696F6E20686173206661696C6529
:1055700064003A0020307800202700270079656712
:105580002D736D2E6C6364002F002000310A000023
:105590009D0280008000FFFFFFFF00000000110D52
:1055A000680EA50CD60CB60CFF0C00000000A42958
:1055B000680E25119812BC276311B51168280712CF
:1055C000B91000000000ED13BC1400146214801424
:0C55D0004D14C914000000002521680ED5
:00000001FF
