:100000000C9403010C9430010C9430010C943001D9
:100010000C9430010C9430010C9430010C9430019C
:100020000C9430010C9430010C9430010C9430018C
:100030000C9430010C9430010C9430010C9430017C
:100040000C9430010C9430010C9430010C9430016C
:100050000C9430010C9430010C9430010C941A096A
:100060000C9430010C944E030C947A040C943001DF
:100070000C9430010C9430010C9430010C9430013C
:100080000C9430010C9430010C9430010C9430012C
:100090000C9487030C94B9040C9430010C94300137
:1000A0000C9430010C9430010C9430010C9430010C
:1000B0000C9430010C9430010C9430010C943001FC
:1000C0000C9430010C9430010C9430010C94C0035A
:1000D0000C94F8040C9430010C94F9030C9437053B
:1000E0000C94300100002100240027002A002D007C
:1000F0003000330001010000040107010A01000083
:100100002200250028002B002E00310034000201BF
:100110000000050108010B0100002000230026005B
:1001200029002C002F00320000010000030106010D
:10013000090105050505070508080808020202026D
:100140000A0A080804040404010101010101010173
:100150000303030303030303040707070C0C0C0C3E
:100160000C0C0C0C02020202060606060606060627
:100170000B0B0B0B0B0B0B0B0102102020080810B4
:100180002040102040800201020108040201010207
:1001900004081020408080402010080402018004E0
:1001A000020180402010080402010804020101023B
:1001B0000408102040800102040810204080000044
:1001C000090A02080B0C0D070603040100000000D9
:1001D000000000000000000000000000000000001F
:1001E0000000000000000000000011100F000000DF
:1001F00000000000000000000000000000000000FF
:1002000000000000A10611241FBECFEFD1E2DEBF27
:10021000CDBF00E00CBF12E0A0E0B2E0E0E5F4E109
:1002200000E00BBF02C007900D92A233B107D9F7CF
:100230001BBE14E0A2E3B2E001C01D92A93DB107CC
:10024000E1F712E0C6E0D2E004C02297FE010E946E
:10025000220AC430D107C9F70E940B090C9432015D
:100260000C940000F8940C94260A84E594E040E88D
:1002700055E260E070E00E94760580911D0260E02A
:100280000E94370280911D0261E00E94EA020895F7
:1002900080911D020E941D0320E0892B09F421E0BA
:1002A000822F0895AF92BF92CF92DF92EF92FF928A
:1002B0000F931F9380911F020E94030200D00F92A0
:1002C000AA2797FDA095BA2F2FE930E040E050E033
:1002D000EDB7FEB72183328343835483BC01CD0144
:1002E00020E030E040E050E0EFEFEE2EE3E0FE2EC5
:1002F000012D112DAA24BB2465010E94C2080F9074
:100300000F900F900F90CB011F910F91FF90EF90E6
:10031000DF90CF90BF90AF900895AF92BF92CF92F1
:10032000DF92EF92FF920F931F93809132020E940F
:10033000030200D00F92AA2797FDA095BA2F2FE7AE
:1003400030E040E050E0EDB7FEB7218332834383D5
:100350005483BC01CD0120E030E040E050E0FFEFED
:10036000EF2EF3E0FF2E012D112DAA24BB246501F1
:100370000E94C2080F900F900F900F90CB011F9119
:100380000F91FF90EF90DF90CF90BF90AF900895C6
:10039000BF92CF92DF92EF92FF920F931F930E9432
:1003A0008D017C010E9452016C010E944801B82E0F
:1003B00004E514E0C80160E072E00E94BF08C801D3
:1003C000B7014AE050E00E949008C80168E072E07E
:1003D0000E94BF08C801B6014AE050E00E949008A0
:1003E000C80161E172E00E94BF08C8016B2D4AE0BC
:1003F00050E00E94A1081F910F91FF90EF90DF90B5
:10040000CF90BF900895382F863308F0365320914F
:100410007B00832F86958695869590E081709070FD
:1004200043E0880F991F4A95E1F7277F282B2093F7
:100430007B003770809121028295880F880F807C25
:10044000832B80937C0080917A00806480937A0073
:1004500080917A0086FDFCCF209178004091790050
:10046000942F80E030E0282B392BC9010895CF93D9
:10047000DF93482F50E0CA0188589E4FFC01349109
:100480004E5C5E4FFA018491882369F190E0880FF9
:10049000991FFC01EC51FF4FA591B491FC01E25072
:1004A000FF4FC591D491662351F42FB7F8948C91E6
:1004B000932F909589238C93888189230BC0623078
:1004C00061F42FB7F8948C91932F909589238C9396
:1004D0008881832B88832FBF06C09FB7F8948C91A7
:1004E000832B8C939FBFDF91CF910895893009F4BE
:1004F00049C08A30A0F4843051F1853040F4823014
:1005000079F1833000F5813009F063C026C087306F
:1005100079F1883098F5863009F05BC025C08D30C0
:1005200009F442C08E3028F48B30B1F18C30C0F524
:100530002DC0803109F442C0813109F445C08F30AB
:1005400009F047C037C0809180008F7703C0809149
:1005500080008F7D80938000089584B58F7702C0DE
:1005600084B58F7D84BD08958091B0008F7703C0DE
:100570008091B0008F7D8093B000089580919000AD
:100580008F7707C0809190008F7D03C0809190008D
:10059000877F8093900008958091A0008F7707C097
:1005A0008091A0008F7D03C08091A000877F809301
:1005B000A0000895809120018F7703C080912001D1
:1005C0008F7D80932001089580912001877F809303
:1005D00020010895FF920F931F93F62E482F50E0AD
:1005E000CA0182549E4FFC012491CA0188589E4F33
:1005F000FC0114914E5C5E4FFA0104910023C9F096
:10060000222319F0822F0E947602E02FF0E0EE0FF5
:10061000FF1FE250FF4FA591B4919FB7F894FF20C0
:1006200021F48C911095812302C08C91812B8C93A5
:100630009FBF1F910F91FF9008950F931F93482F15
:1006400050E0CA0182549E4FFC012491CA0188588F
:100650009E4FFC0104914E5C5E4FFA0114911123F0
:1006600019F420E030E015C0222319F0822F0E94F7
:100670007602812F90E0880F991F885E9E4FFC01C3
:10068000A591B4918C9120E030E0802311F021E01D
:1006900030E0C9011F910F91089508951F920F92A4
:1006A0000FB60F920BB60F9211242F933F934F93D7
:1006B0008F939F93EF93FF934091C6002091740214
:1006C000309175022F5F3F4F2F733070809176020B
:1006D000909177022817390759F0E0917402F09150
:1006E0007502EC5CFD4F40833093750220937402D9
:1006F000FF91EF919F918F914F913F912F910F908B
:100700000BBE0F900FBE0F901F90189508951F926B
:100710000F920FB60F920BB60F9211242F933F93A7
:100720004F938F939F93EF93FF934091CE0020912F
:10073000FC023091FD022F5F3F4F2F73307080918C
:10074000FE029091FF022817390759F0E091FC0250
:10075000F091FD02E454FD4F40833093FD0220935D
:10076000FC02FF91EF919F918F914F913F912F91BB
:100770000F900BBE0F900FBE0F901F90189508950D
:100780001F920F920FB60F920BB60F9211242F9358
:100790003F934F938F939F93EF93FF934091D60096
:1007A00020918403309185032F5F3F4F2F7330706A
:1007B00080918603909187032817390759F0E091BB
:1007C0008403F0918503EC5BFC4F408330938503F9
:1007D00020938403FF91EF919F918F914F913F91CF
:1007E0002F910F900BBE0F900FBE0F901F9018957A
:1007F00008951F920F920FB60F920BB60F9211240D
:100800002F933F934F938F939F93EF93FF93409139
:10081000360120910C0430910D042F5F3F4F2F7350
:10082000307080910E0490910F042817390759F009
:10083000E0910C04F0910D04E453FC4F408330939D
:100840000D0420930C04FF91EF919F918F914F9194
:100850003F912F910F900BBE0F900FBE0F901F90E6
:100860001895E0916004F0916104E05CFF4F819184
:10087000919120813181821B930B8F739070892B12
:1008800011F00E944D03E0917F04F0918004E05C40
:10089000FF4F8191919120813181821B930B8F7346
:1008A0009070892B11F00E948603E0919E04F091D4
:1008B0009F04E05CFF4F8191919120813181821BE7
:1008C000930B8F739070892B11F00E94BF03E091FE
:1008D000BD04F091BE04E05CFF4F819191912081B5
:1008E0003181821B930B8F739070892B11F00E94C2
:1008F000F80308951F920F920FB60F920BB60F9246
:1009000011242F933F938F939F93EF93FF93209105
:10091000B8023091B9028091BA029091BB022817B7
:10092000390731F48091C1008F7D8093C10014C0DC
:10093000E091BA02F091BB02E858FD4F208180910E
:10094000BA029091BB0201968F7390709093BB0294
:100950008093BA022093C600FF91EF919F918F91EF
:100960003F912F910F900BBE0F900FBE0F901F90D5
:1009700018951F920F920FB60F920BB60F9211247B
:100980002F933F938F939F93EF93FF932091400377
:100990003091410380914203909143032817390716
:1009A00031F48091C9008F7D8093C90014C0E0911B
:1009B0004203F0914303E050FD4F208180914203B8
:1009C0009091430301968F739070909343038093AB
:1009D00042032093CE00FF91EF919F918F913F9121
:1009E0002F910F900BBE0F900FBE0F901F90189578
:1009F0001F920F920FB60F920BB60F9211242F93E6
:100A00003F938F939F93EF93FF932091C80330916F
:100A1000C9038091CA039091CB032817390731F499
:100A20008091D1008F7D8093D10014C0E091CA03E2
:100A3000F091CB03E857FC4F20818091CA0390913D
:100A4000CB0301968F7390709093CB038093CA036E
:100A50002093D600FF91EF919F918F913F912F911D
:100A60000F900BBE0F900FBE0F901F9018951F9206
:100A70000F920FB60F920BB60F9211242F933F9344
:100A80008F939F93EF93FF932091500430915104E3
:100A900080915204909153042817390731F48091C2
:100AA00031018F7D8093310114C0E0915204F091A7
:100AB0005304E05FFB4F20818091520490915304D6
:100AC00001968F73907090935304809352042093F7
:100AD0003601FF91EF919F918F913F912F910F9050
:100AE0000BBE0F900FBE0F901F901895AF92BF9244
:100AF000DF92EF92FF920F931F93CF93DF93EC015E
:100B00007A018B01DD24403081EE580780E06807D0
:100B100080E0780711F0DD24D39491E0A92EB12C68
:100B2000EC89FD89DD2069F0C5010E8C02C0880FBB
:100B3000991F0A94E2F7808360E079E08DE390E00A
:100B400005C0108260E874E88EE190E0A80197018A
:100B50000E94E3092150304040405040569547954F
:100B60003795279580E12030380720F0DD2011F0FF
:100B7000DD24D6CFE889F9893083EA89FB8920838F
:100B8000EE89FF89408121E030E0C9010A8C02C072
:100B9000880F991F0A94E2F7482B4083EE89FF895A
:100BA0004081C9010B8C02C0880F991F0A94E2F79B
:100BB000482B4083EE89FF894081C9010C8C02C01B
:100BC000880F991F0A94E2F7482B4083EE89FF892A
:100BD00080810D8C02C0220F331F0A94E2F720950A
:100BE00028232083DF91CF911F910F91FF90EF90E9
:100BF000DF90BF90AF900895DC011C96ED91FC91C1
:100C00001D97E05CFF4F2191319180819181281BDC
:100C1000390B2F733070C9010895DC011C96ED91DA
:100C2000FC911D97E05CFF4F20813181E054F04042
:100C3000DF01AE5BBF4F8D919C911197281739074B
:100C400019F42FEF3FEF07C08D919C91E80FF91F2A
:100C50008081282F30E0C9010895DC011C96ED91B8
:100C6000FC911D97E05CFF4F20813181E054F04002
:100C7000DF01AE5BBF4F8D919C911197281739070B
:100C800019F42FEF3FEF10C08D919C911197E80F51
:100C9000F91F20818D919C91119701968F7390700F
:100CA00011969C938E9330E0C9010895FC018685CE
:100CB0009785DC01A05CBF4FFC01EE5BFF4F2D91DF
:100CC0003C9111978081918128173907C1F70895C8
:100CD000CF93DF93EC01EE85FF85E05CFF4F208131
:100CE0003181E054F0402F5F3F4F2F733070DF01B0
:100CF000AE5BBF4F8D919C91119728173907D1F3A7
:100D0000E05CFF4F80819181E054F040E80FF91FD3
:100D10006083EE85FF85E05CFF4F31832083EE89A1
:100D2000FF89208181E090E00D8C02C0880F991F1F
:100D30000A94E2F7282B208381E090E0DF91CF91A5
:100D400008951F93109257041092560428EE33E032
:100D500040E050E0209358043093590440935A04E3
:100D600050935B0466E272E0709355046093540400
:100D700084E392E0909361048093600488E792E0BA
:100D8000909363048093620485EC90E090936504F3
:100D90008093640484EC90E09093670480936604ED
:100DA00080EC90E0909369048093680481EC90E07B
:100DB00090936B0480936A0486EC90E090936D04AA
:100DC00080936C0414E010936E04B3E0B0936F044E
:100DD000A7E0A0937004F5E0F0937104E1E0E093E4
:100DE0007204109276041092750420937704309365
:100DF00078044093790450937A0470937404609358
:100E000073048CEB92E09093800480937F0480E0E5
:100E100093E090938204809381048DEC90E0909312
:100E20008404809383048CEC90E0909386048093F8
:100E3000850488EC90E0909388048093870489EC83
:100E400090E090938A04809389048EEC90E09093D4
:100E50008C0480938B0410938D04B0938E04A09324
:100E60008F04F0939004E0939104109295041092F3
:100E700094042093960430939704409398045093DD
:100E80009904709393046093920484E493E09093A4
:100E90009F0480939E0488E893E09093A10480933C
:100EA000A00485ED90E09093A3048093A20484EDC8
:100EB00090E09093A5048093A40480ED90E090933B
:100EC000A7048093A60481ED90E09093A9048093F9
:100ED000A80486ED90E09093AB048093AA0410934D
:100EE000AC04B093AD04A093AE04F093AF04E093D0
:100EF000B0041092B4041092B3042093B50430935C
:100F0000B6044093B7045093B8047093B20460934E
:100F1000B1048CEC93E09093BE048093BD0480E117
:100F200094E09093C0048093BF0485E391E0909394
:100F3000C2048093C10484E391E09093C40480933D
:100F4000C30480E391E09093C6048093C50481E3D9
:100F500091E09093C8048093C70486E391E0909356
:100F6000CA048093C9041093CB04B093CC04A0931B
:100F7000CD04F093CE04E093CF041F910895CF9257
:100F8000DF92EF92FF920F931F93CF93DF937C0139
:100F90006B018A01C0E0D0E00FC0D6016D916D01F8
:100FA000D701ED91FC910190F081E02DC7011995D9
:100FB000C80FD91F015010400115110571F7CE015E
:100FC000DF91CF911F910F91FF90EF90DF90CF9025
:100FD0000895EF92FF920F931F938C01DC01ED9126
:100FE000FC910190F081E02D6DE019957C01D80114
:100FF000ED91FC910190F081E02DC8016AE0199516
:101000009C012E0D3F1DC9011F910F91FF90EF9084
:101010000895CF93DF93DB010D900020E9F711973E
:10102000A61BB70BEC01E881F9810280F381E02D6A
:10103000AD011995DF91CF9108954F925F927F9204
:101040008F929F92AF92BF92CF92DF92EF92FF92D8
:101050000F931F93DF93CF93CDB7DEB7A1970FB652
:10106000F894DEBF0FBECDBF2C01742ECB01223011
:1010700008F42AE019A231E2C32ED12CCC0EDD1ED9
:10108000822E9924AA24BB24672D752FA5019401D3
:101090000E94E30979018A01C801B701A501940101
:1010A0000E94C409472D461B0894C108D1084A3044
:1010B00014F4405D01C0495CF6014083E114F10481
:1010C0000105110521F07E2C5F2DC801DDCFC20185
:1010D000B6010E940908A1960FB6F894DEBF0FBEB4
:1010E000CDBFCF91DF911F910F91FF90EF90DF90D7
:1010F000CF90BF90AF909F908F907F905F904F90D8
:101100000895DC012115310541F4ED91FC91019028
:10111000F081E02D642F199508950E941D0808950F
:10112000EF92FF920F931F939A017B0100E010E072
:10113000B801A7010E9481081F910F91FF90EF90C5
:101140000895CF92DF92EF92FF920F931F936C015D
:10115000E62E9A01FF2400E010E0B801A7010E94EA
:1011600081088C01C6010E94E907080F191FC801F8
:101170001F910F91FF90EF90DF90CF9008950E9404
:10118000090808952F923F924F925F926F927F923B
:101190008F929F92AF92BF92CF92DF92EF92FF9287
:1011A0000F931F93DF93CF93CDB7DEB73B014C0175
:1011B00019012A016E897F89888D998D6A197B09A9
:1011C0008C099D09621A730A840A950AA401930185
:1011D0000E94C409E218F30804091509A80197013F
:1011E0000E94050A2A0D3B1D4C1D5D1DB901CA0157
:1011F000CF91DF911F910F91FF90EF90DF90CF90F3
:10120000BF90AF909F908F907F906F905F904F9026
:101210003F902F900895CF93DF930E9462090E9420
:101220003501C1E3D4E00E94C8012097E1F30E9498
:101230003104F9CF1F920F920FB60F9211242F9302
:101240003F938F939F93AF93BF938091D4049091DA
:10125000D504A091D604B091D7043091D80401965A
:10126000A11DB11D232F2D5F2D3720F02D57019685
:10127000A11DB11D2093D8048093D4049093D5046C
:10128000A093D604B093D7048091D0049091D10458
:10129000A091D204B091D3040196A11DB11D8093F9
:1012A000D0049093D104A093D204B093D304BF91FF
:1012B000AF919F918F913F912F910F900FBE0F9003
:1012C0001F901895789484B5826084BD84B5816040
:1012D00084BD85B5826085BD85B5816085BDEEE63E
:1012E000F0E0808181608083E1E8F0E0108280811D
:1012F00082608083808181608083E0E8F0E080818B
:1013000081608083E1EBF0E0808184608083E0EBAA
:10131000F0E0808181608083E1E9F0E0808182609B
:101320008083808181608083E0E9F0E0808181605A
:101330008083E1EAF0E08081826080838081816047
:101340008083E0EAF0E0808181608083E1E2F1E087
:10135000808182608083808181608083E0E2F1E02F
:10136000808181608083EAE7F0E08081846080830F
:1013700080818260808380818160808380818068B9
:1013800080831092C1000895629FD001739FF00185
:10139000829FE00DF11D649FE00DF11D929FF00D05
:1013A000839FF00D749FF00D659FF00D9927729F3C
:1013B000B00DE11DF91F639FB00DE11DF91FBD01C7
:1013C000CF0111240895A1E21A2EAA1BBB1BFD0117
:1013D0000DC0AA1FBB1FEE1FFF1FA217B307E40714
:1013E000F50720F0A21BB30BE40BF50B661F771F6C
:1013F000881F991F1A9469F760957095809590954C
:101400009B01AC01BD01CF01089597FB092E052674
:101410000ED057FD04D0D7DF0AD0001C38F4509509
:101420004095309521953F4F4F4F5F4F0895F6F708
:1014300090958095709561957F4F8F4F9F4F089540
:10144000EE0FFF1F0590F491E02D1994F894FFCF53
:10145000486F72697A3A20003B20566572743A20D0
:10146000003B20507265737365643F2000020001E9
:101470000001000000006806BF07FC052D060D06F0
:0214800056060E
:00000001FF
